:04000000020029329F
:03000B0002110BD4
:0100130032BA
:01001B0032B2
:0300230002009D3B
:1B008200752200752301752400E4F525F526E4F527F528E4F529F52A0200261B
:030026000210566F
:20009D00C021C0E0C0F0C082C083C007C006C005C004C003C002C001C000C0D075D000C2DA
:2000BD00AF109802804BE525B52716E526B52811C3E49529E46480852AF063F08095F040A6
:2000DD0030E5272480F582E5283400F583E599F0852782852883A375088075090012127273
:2000FD0085822785832874012529F529E4352AF52AD2AFD0D0D000D001D002D003D004D037
:20011D0005D006D007D083D082D0F0D0E0D02132C2AFE529452A70067EFF7FFF8037E525B8
:20013D002480F582E5263400F583E0FE7F00852582852683A3750880750900C007C006125C
:20015D001272858225858326D006D007152974FFB52902152AD2AF8E828F832212012DAE74
:20017D0082AF838E048F05BEFF06BFFF030080EC8C82227F077E02DEFEDFFA22AE82AF8329
:20019D008E048F051EBEFF011FEC4D600DC007C006120190D006D00780E622AF82C2D575D9
:2001BD00F040EF30E704B2D5F404A430D50AF42401C5F0F43400C5F0FEAFF07D00EDC4033D
:2001DD0054F8FC7B00EE2400F9EF3400FAEC29F9E43AFAEB29F582E43AF583E508F00BBB2D
:2001FD00080040E10DBD080040D322AF828FF005F07401800225E0D5F0FBFFE50A604AE5D4
:20021D002275F040A42400FD740035F0FEE509C40354F8FC2DFDE43EFEE508FB2DFDE43E23
:20023D00FEE52275F040A42400F9740035F0FAEC29F9E43AFAEB29F582E43AF583E0FCEF91
:20025D0042048D828E83ECF022E52275F040A42400FD740035F0FEE509C40354F8FC2DFDEE
:20027D00E43EFEE508FB2DFDE43EFEE52275F040A42400F9740035F0FAEC29F9E43AFAEBFE
:20029D0029F582E43AF583EFF4FFE052078D828E83EFF022AF82E52275F040A42400FD74B9
:2002BD000035F0FEE508C40354F82DFDE43EFEEF2DF582E43EF583E509F022E522600875A3
:2002DD00220075230180067522017523007508008523820201B8E582FF33B3E433FE30E0BD
:2002FD0044E52B6007747FC39FFE80028F06EE9012E493FEC4035407FD530507EE030354F1
:20031D003FFC530407530603C374BF8FF063F08095F050057407C39EFE8C088E09852C0AE9
:20033D008D8202020822AF8275F00AEF84FE75F00AA4D39FF4FFBF050040010E8E8222E5B0
:20035D0082FF30E704C3E49FFF8F8222AD82AE83AFF0121256FCA908AA09AB0A89828A83C6
:20037D008BF0121256F8C39C50148D828E838FF0E81211C589828A838BF0EC0211C522AF19
:20039D0082C3EF95085002AF08C3EF95095002AF098F8222AF82E52FC39FFEE530C3952D9A
:2003BD00F534E531C3952EF5358E82C007C00612035CAB82853482C00312035CAA828535A1
:2003DD0082C00212035C858209D002D0038A088B8212039C858233D006D007EF75F00AA45D
:2003FD00FFE52D75F00AA4FAE52E75F00AA4F9C2D575F00AEE30E704B2D5F404A430D50A62
:20041D00F42401C5F0F43400C5F0F58285F083E533F83395E0FB88088B09C007C003C00282
:20043D00C001C0001212A8AC82AD83D000D001D002D003D0078C06C2D575F00AE53430E70F
:20045D0004B2D5F404A430D50AF42401C5F0F43400C5F0F58285F08388088B09C007C0067E
:20047D00C003C002C001C0001212A8AC82AD83D000D001D002D003D006D0078C34C2D57570
:20049D00F00AE53530E704B2D5F404A430D50AF42401C5F0F43400C5F0F58285F083880834
:2004BD008B09C007C006C002C0011212A8AC82D001D002D006D0078C357D00C3ED648085DA
:2004DD0033F063F08095F050628F82C007C006C005C002C001120343AC82D001D0028A82B7
:2004FD00C004C002C001120343AB82D001D0028982C003C002C001120343858209D001D016
:20051D0002D003D0048B0885320A8C82C002C001120208D001D002D005D006D007EE2FFFD3
:20053D00E5342AFAE53529F90D809085300885310985320A852F82020208AF8275083A752C
:20055D000900750A4090003775F040C007120369D007E53B6029AE37C3E53A9E5001228528
:20057D00362D8E2E85382F8539308E31853C328F82C007C0061203B1D006D0070E80D985B6
:20059D00362D85372E85382F853930853731853C328F82C0071203B1D00785362D853A2EED
:2005BD0085382F853930853A31853C328F82C0071203B185392D85372E85382F853930858F
:2005DD003A31853C328538821203B1D00785362D85372E8F2F853630853A31853C328F8255
:2005FD000203B17F81C3E49529E46480852AF063F08095F05002D322EF24FEF582752B0095
:20061D00752C01C0071202F3901F40120199D007EF14FE752B00752C008E82C0061202F3BC
:20063D00D0068E07EF70BE901F401201997F00C3E49529E46480852AF063F08095F0500285
:20065D00D322752B01752C018F82C0071202F3901F40120199D007EF24F8F582752B01755C
:20067D002C00C0071202F3D0070FBF880040C0901F401201997F81C3E49529E46480852ABF
:20069D00F063F08095F05002D322EF24FEF582752B00752C01C0071202F3901F401201997B
:2006BD00D007DFD3901F401201997F00C3E49529E46480852AF063F08095F05002D322EF20
:2006DD0024F8F582752B01752C00C0071202F3901F40120199D0070FBF800040CF90EA60B1
:2006FD00120199C3227F00C3E49529E46480852AF063F08095F05002D3228F36753700757C
:20071D0038078F39753A07753B01753C01758200C007120557904E20120199D007C3EF64D9
:20073D00809487501D8F367537007538078F39753A07753B01753C00758200C00712055763
:20075D00D0070FC3EF64809488409C7F07C3E49529E46480852AF063F08095F05002D32217
:20077D008F367537007538078F39753A07753B01753C01758200C007120557904E20120119
:20079D0099D007C3E464808FF063F08095F0501D8F367537007538078F39753A07753B01A9
:2007BD00753C00758200C007120557D0071FEF30E79B7F00C3E49529E46480852AF063F00A
:2007DD008095F05002D3228F367537007538078F39753A07753B01753C01758200C00712DA
:2007FD000557904E20120199D007C3EF64809487501D8F367537007538078F39753A0775C9
:20081D003B01753C00758200C007120557D0070FC3EF64809488409C227F07EF24F9243D19
:20083D00F8A6070FC3EF6480948F40EF7F00C3E49529E46480852AF063F08095F05002D337
:20085D00227E00EE243DF98705C3ED64809488E433FCED33B3E433FB5C601C8D2D8E2E759C
:20087D002F078D308E31753201758200C007C0061203B1D006D0070EC3EE6480948840C348
:20089D007E00EE243DF9E7FDFB3395E0FC0BBB00010CC3EB9408EC64809480E433FBED33BF
:2008BD00B3E433FC5B601D0D8D2D8E2E752F078D308E31753200758200C007C0061203B1E2
:2008DD00D006D0070EC3EE6480948840B57E00EE243DF98705C3E464808DF063F08095F0E8
:2008FD005003ED14F70EC3EE6480948840E1903A98C007120199D0070FC374908FF063F05C
:20091D008095F0400302084B7F00EF243DF97401C39FF70FC3EF6480948840EE7F00C3E472
:20093D009529E46480852AF063F08095F05002D3227E00EE243DF98705C3ED64809488E4F0
:20095D0033FCED33B3E433FB5C601C8D2D8E2E752F078D308E31753201758200C007C006C5
:20097D001203B1D006D0070EC3EE6480948840C37E00EE243DF9E7FDFB3395E0FC1BBBFF07
:20099D00011CC3EB9407EC64809480E433FBC3E464808DF063F08095F0E433FC5B601D1D76
:2009BD008D2D8E2E752F078D308E31753200758200C007C0061203B1D006D0070EC3EE64BC
:2009DD0080948840AD7E00EE243DF98705C3ED648094875003ED04F70EC3EE648094884036
:2009FD00E6903A98C007120199D0070FC374908FF063F08095F0400302093BC3227F07EFB8
:200A1D0024F92445F8A6070FC3EF6480948B40EF7F088F061FEE7003020AE4C3E49529E4C6
:200A3D006480852AF063F08095F05002D3227E00EE2445F98705C3ED648094885022740780
:200A5D00C39EFC8D368E378C388D398C3A753B00753C018E82C007C006120557D006D0072A
:200A7D00EE2445F98705C3ED6480948750230D7407C39EFC8D368E378C388D398C3A753BEE
:200A9D0000753C008E82C007C006120557D006D0070EC3EE6480948440967E00EE2445F971
:200ABD008705C374838DF063F08095F05003ED14F70EC3EE6480948440E2903A98C007129B
:200ADD000199D007020A2F7F00EF2445F97405C39FF70FC3EF6480948440EE7F038F061F8A
:200AFD00EE7003020BB0C3E49529E46480852AF063F08095F05002D3227E01EE2445F987FA
:200B1D0005C3ED6480948450227407C39EFC8D368E378C388D398C3A753B00753C018E8273
:200B3D00C007C006120557D006D007EE2445F98705C3ED6480948350230D7407C39EFC8D84
:200B5D00368E378C388D398C3A753B00753C008E82C007C006120557D006D0070EC3EE64F1
:200B7D0080948440967E00EE2445F98705C3E464808DF063F08095F05003ED14F70EC3EE26
:200B9D006480948440E1903A98C007120199D007020AFA7F01EF2445F97404C39FF70FC3F5
:200BBD00EF6480948440EE7F038F061FEE7003020C77C3E49529E46480852AF063F08095AF
:200BDD00F05002D3227E01EE2445F9E7FD20E7227407C39EFC8D368E378C388D398C3A75C0
:200BFD003B00753C018E82C007C006120557D006D007EE2445F98705C3E464808DF063F0FC
:200C1D008095F050231D7407C39EFC8D368E378C388D398C3A753B00753C008E82C007C07A
:200C3D0006120557D006D0070EC3EE6480948440967E01EE2445F98705C3ED64809483508F
:200C5D0003ED04F70EC3EE6480948440E6903A98C007120199D007020BC67F00EF2445F95C
:200C7D00EF04FEF78E07C3EF6480948440EE7F038F061FEE7003020D3DC3E49529E46480EE
:200C9D00852AF063F08095F05002D3227E01EE2445F98705C374838DF063F08095F050229D
:200CBD007407C39EFC8D368E378C388D398C3A753B00753C018E82C007C006120557D00624
:200CDD00D007EE2445F98705C374838DF063F08095F050231D7407C39EFC8D368E378C3801
:200CFD008D398C3A753B00753C008E82C007C006120557D006D0070EC3EE64809484408EA9
:200D1D007E00EE2445F9E7FD04F70EC3EE6480948440EF903A98C007120199D007020C8DD8
:200D3D007F03EF24FE2445F8A6070FC3EF6480948640EF7F038F061FEE7003020DF2C3E4C8
:200D5D009529E46480852AF063F08095F05002D3227E01EE2445F987057407C39EFC8D36BC
:200D7D008E378C388D398C3A753B00753C018E82C007C006C004C001120557D001D004D0DA
:200D9D000687050D8D368E378C388D398C3A753B00753C008E82C006120557D006D0070E5F
:200DBD00C3EE6480948440AB7E00EE2445F98705C374838DF063F08095F05003ED14F70E3C
:200DDD00C3EE6480948440E2903A98C007120199D007020D527F00EF2445F97405C39FF778
:200DFD000FC3EF6480948440EE7F038F061FEE7003020EBEC3E49529E46480852AF063F067
:200E1D008095F05002D3227E01EE2445F98705C3ED6480948450227407C39EFC8D368E3790
:200E3D008C388D398C3A753B00753C018E82C007C006120557D006D007EE2445F98705C38C
:200E5D00ED6480948350230D7407C39EFC8D368E378C388D398C3A753B00753C008E82C02C
:200E7D0007C006120557D006D0070EC3EE6480948440967E00EE2445F98705C3E464808D6A
:200E9D00F063F08095F05003ED14F70EC3EE6480948440E1903A98C007120199D007020E0A
:200EBD00087F00EF2445F97403C39FF70FC3EF6480948440EE7545027F038F061FEE70032F
:200EDD00020F98C3E49529E46480852AF063F08095F05002D3227E00EE2445F9E7FD20E728
:200EFD00227407C39EFC8D368E378C388D398C3A753B00753C018E82C007C006120557D0C6
:200F1D0006D007EE2445F9E7FD20E7230D7407C39EFC8D368E378C388D398C3A753B007597
:200F3D003C008E82C007C006120557D006D0070EC3EE6480948340A07E00EFFC3395E0FDF8
:200F5D007405C39CFCE49DFDEEFA3395E0FBC3EA9CEB64808DF063F08095F05008EE2445FB
:200F7D00F9E7FD14F70EC3EE6480948440CC903A98C007120199D007020ED77F00EF24453B
:200F9D00F9EF24FEF70FC3EF6480948440EF7F0A8F061FEE7003021054C3E49529E4648016
:200FBD00852AF063F08095F05002D3227E00EE2445F9E7FD20E7227407C39EFC8D368E379B
:200FDD008C388D398C3A753B00753C018E82C007C006120557D006D007EE2445F9E7FD2036
:200FFD00E7231D7407C39EFC8D368E378C388D398C3A753B00753C008E82C007C0061205E8
:20101D0057D006D0070EC3EE6480948440A07E00EE2445F98705C3ED648094875003ED04C7
:20103D00F70EC3EE6480948440E6903A98C007120199D007020FADC322C201C2007F005315
:20105D00877F759850438E04759CD9438E01438E10D2AC758CC0758A00D28CD2A9D2AF7591
:20107D000800852282C0071201B87508008523821201B8D00730015BC007120179AE82D068
:20109D00078E057E0020000CBDF2EABE00E7D2007F0080E1BF4000502AE52375F040A42411
:2010BD0000FB740035F0FCEFC423541FC40354F8FA2BFBE43CFC74075F2BF582E43CF583D7
:2010DD00EDF00FBF400040ADC0071202D8D007C20080A2C007120600120702120836120849
:2010FD0036120A1A120A1AD0079201021092C021C0E0C0F0C082C083C007C006C005C00457
:20111D00C003C002C001C000C0D075D0007590007F008FF005F07401800225E0D5F0FBF52E
:20113D00A0900003C007120199D007E52275F040A42400FD740035F0FEE524C40354F82DC4
:20115D00FDE43EFEEF2DF582E43EF583E0F580900003C007120199D0070FBF080040B385A8
:20117D0024F005F07401800225E0D5F0FBF590AE247F008E828F83A37508087509001212CB
:20119D0072AE828E24758CC0758A00D0D0D000D001D002D003D004D005D006D007D083D0BF
:0811BD0082D0F0D0E0D0213215
:2012E4000020406080A0C0E0E4E8ECF0F4F8FCDCBC9C7C5C3C1C1814100C080425456585CE
:20130400A5C5C9CDD1D5D9B99979593935312D294A6A8AAAAEB2B6967656524E6F8F93732D
:201324006F8F93734A6A8AAAAEB2B6967656524E25456585A5C5C9CDD1D5D9B99979593975
:2013440035312D290020406080A0C0E0E4E8ECF0F4F8FCDCBC9C7C5C3C1C1814100C080405
:06005800E478FFF6D8FD7C
:200036007900E94400601B7A00901364780075A001E493F2A308B8000205A0D9F4DAF275F9
:02005600A0FF09
:1B11C50020F71130F6138883A88220F509F6A8837583002280FEF280F5F02229
:2011E000E508450960467A01E50825E0F508E509334012F509E5829508E583950940030ADC
:2012000080E6C3E50913F509E50813F508C3E5829508F5F0E58395094005F58385F082C380
:0D122000E50913F509E50813F508DAE122E8
:20005E007800E84400600A790075A000E4F309D8FC7800E84401600C7901900000E4F0A3A0
:04007E00D8FCD9FAD7
:20122D007A10E4FBFCE58225E0F582E58333F583EB33FBEC33FCEB9508F5F0EC95094006D5
:09124D00FCABF0438201DADD2262
:0D0029007581481212E0E582600302002696
:1C12560020F71430F6148883A88220F507E6A88375830022E280F7E49322E022A7
:20127200C2D5E58330E70DD2D5E4C39582F582E49583F583E50930E70BE4C39508F508E4B4
:161292009509F5091211E030D50BE4C39582F582E49583F58322CC
:2012A800C2D5E58330E70DD2D5E4C39582F582E49583F583E50930E70DB2D5E4C39508F5E1
:1812C80008E49509F50912122D30D50BE4C39582F582E49583F583225A
:0412E00075820022F1
:00000001FF
