:04000000020029329F
:03000B00021B7164
:0100130032BA
:01001B0032B2
:0300230002009D3B
:1B008200752200752301752400E4F525F526E4F527F528E4F529F52A0200261B
:03002600021AB605
:20009D00C021C0E0C0F0C082C083C007C006C005C004C003C002C001C000C0D075D000C2DA
:2000BD00AF109802804BE525B52716E526B52811C3E49529E46480852AF063F08095F040A6
:2000DD0030E5272480F582E5283400F583E599F0852782852883A3750880750900121CD803
:2000FD0085822785832874012529F529E4352AF52AD2AFD0D0D000D001D002D003D004D037
:20011D0005D006D007D083D082D0F0D0E0D02132C2AFE529452A70067EFF7FFF8037E525B8
:20013D002480F582E5263400F583E0FE7F00852582852683A3750880750900C007C006125C
:20015D001CD8858225858326D006D007152974FFB52902152AD2AF8E828F832212012DAE04
:20017D0082AF838E048F05BEFF06BFFF030080EC8C82227F077E02DEFEDFFA22AE82AF8329
:20019D008E048F051EBEFF011FEC4D600DC007C006120190D006D00780E622AF82C2D575D9
:2001BD00F040EF30E704B2D5F404A430D50AF42401C5F0F43400C5F0FEAFF07D00EDC4033D
:2001DD0054F8FC7B00EE2400F9EF3400FAEC29F9E43AFAEB29F582E43AF583E508F00BBB2D
:2001FD00080040E10DBD080040D322AF828FF005F07401800225E0D5F0FBFFE50A604AE5D4
:20021D002275F040A42400FD740035F0FEE509C40354F8FC2DFDE43EFEE508FB2DFDE43E23
:20023D00FEE52275F040A42400F9740035F0FAEC29F9E43AFAEB29F582E43AF583E0FCEF91
:20025D0042048D828E83ECF022E52275F040A42400FD740035F0FEE509C40354F8FC2DFDEE
:20027D00E43EFEE508FB2DFDE43EFEE52275F040A42400F9740035F0FAEC29F9E43AFAEBFE
:20029D0029F582E43AF583EFF4FFE052078D828E83EFF022AF82E52275F040A42400FD74B9
:2002BD000035F0FEE508C40354F82DFDE43EFEEF2DF582E43EF583E509F022E522600875A3
:2002DD00220075230180067522017523007508008523820201B8E582FF33B3E433FE30E0BD
:2002FD0044E52B6007747FC39FFE80028F06EE901D4A93FEC4035407FD530507EE03035480
:20031D003FFC530407530603C374BF8FF063F08095F050057407C39EFE8C088E09852C0AE9
:20033D008D8202020822AF8275F00AEF84FE75F00AA4D39FF4FFBF050040010E8E8222E5B0
:20035D0082FF30E704C3E49FFF8F8222AD82AE83AFF0121CBCFCA908AA09AB0A89828A8356
:20037D008BF0121CBCF8C39C50148D828E838FF0E8121C2B89828A838BF0EC021C2B22AFC7
:20039D0082C3EF95085002AF08C3EF95095002AF098F8222AF82E52FC39FFEE530C3952D9A
:2003BD00F534E531C3952EF5358E82C007C00612035CAB82853482C00312035CAA828535A1
:2003DD0082C00212035C858209D002D0038A088B8212039C858233D006D007EF75F00AA45D
:2003FD00FFE52D75F00AA4FAE52E75F00AA4F9C2D575F00AEE30E704B2D5F404A430D50A62
:20041D00F42401C5F0F43400C5F0F58285F083E533F83395E0FB88088B09C007C003C00282
:20043D00C001C000121D0EAC82AD83D000D001D002D003D0078C06C2D575F00AE53430E79E
:20045D0004B2D5F404A430D50AF42401C5F0F43400C5F0F58285F08388088B09C007C0067E
:20047D00C003C002C001C000121D0EAC82AD83D000D001D002D003D006D0078C34C2D575FF
:20049D00F00AE53530E704B2D5F404A430D50AF42401C5F0F43400C5F0F58285F083880834
:2004BD008B09C007C006C002C001121D0EAC82D001D002D006D0078C357D00C3ED64808569
:2004DD0033F063F08095F050628F82C007C006C005C002C001120343AC82D001D0028A82B7
:2004FD00C004C002C001120343AB82D001D0028982C003C002C001120343858209D001D016
:20051D0002D003D0048B0885320A8C82C002C001120208D001D002D005D006D007EE2FFFD3
:20053D00E5342AFAE53529F90D809085300885310985320A852F82020208AF8275083A752C
:20055D000900750A4090003775F040C007120369D007E53B6029AE37C3E53A9E5001228528
:20057D00362D8E2E85382F8539308E31853C328F82C007C0061203B1D006D0070E80D985B6
:20059D00362D85372E85382F853930853731853C328F82C0071203B1D00785362D853A2EED
:2005BD0085382F853930853A31853C328F82C0071203B185392D85372E85382F853930858F
:2005DD003A31853C328538821203B1D00785362D85372E8F2F853630853A31853C328F8255
:2005FD000203B1E582FF24FC500122EF2F2F90060F7302072002061B0206770206CF7F00A9
:20061D00E52275F040A42400FD740035F0FEEFC40354F82DFDE43EFE74072DF582E43EF533
:20063D0083E4F0E52275F040A42400FD740035F0FE74382DFDE43EFE7406C39F2DF582E4E4
:20065D003EF58374FFF0853D82853E83C007120199D0070FBF070040A7227F00E52275F0C7
:20067D0040A42400FD740035F0FE74382DFDE43EFE7407C39F2DF582E43EF583E4F0E522D5
:20069D0075F040A42400FD740035F0FE7406C39FC40354F82DF582E43EF58374FFF0853DEA
:2006BD0082853E83C007120199D0070FBF070040AB227F00E52275F040A42400FD74003590
:2006DD00F0FE7407C39FC40354F82DF582E43EF583E4F0E52275F040A42400FD740035F003
:2006FD00FEEF04FC2DF582E43EF58374FFF0853D82853E83C004120199D0048C07BF070028
:20071D0040B2227F00E52275F040A42400FD740035F0FEEF2DF582E43EF583E4F0E52275A4
:20073D00F040A42400FD740035F0FEEF04FCC40354F82DFDE43EFE74072DF582E43EF5830B
:20075D0074FFF0853D82853E83C004120199D0048C07BF070040AE22E582FF24FC500122E9
:20077D00EF2F2F900784730208750207900207DA0208257F008F2D752E00752F008F3075A1
:20079D003107753200758200C0071203B1D007EF04FE752D07752E008E2F753007753107AF
:2007BD007532018E82C0061203B1853F82854083120199D0068E07BF070040B9227E00755F
:2007DD002D07752E008E2F7530077531077532008E82C0061203B1D0067406C39EFD8D2D64
:2007FD00752E00752F078D30753107753201758207C0061203B1853F82854083120199D0E8
:20081D00060EBE070040B8227E007407C39EFD8D2D752E00752F078D3075310775320075E3
:20083D008207C0061203B1D0067406C39EFD752D00752E008D2F7530007531077532018D50
:20085D0082C0061203B1853F82854083120199D0060EBE070040B3227F007407C39FFE75A6
:20087D002D00752E008E2F7530007531077532008E82C0071203B1D007EF04FE8E2D752E12
:20089D0000752F008E30753107753201758200C0061203B1853F82854083120199D0068E63
:2008BD0007BF070040B422E582FF24FC500122EF2F2F9008D3730209E50208DF02093502F9
:2008DD00098B7F007407C39FF5398F36753700753807753A07753B01753C01758200C007E1
:2008FD00120557854182854283120199D007BF0700501E7536037537007538008F39753AA6
:20091D0007753B01753C00758203C007120557D0070FBF080040AD227F007407C39FF58293
:20093D007536007537008F38753907753A07753B01753C01C00712055785418285428312D5
:20095D000199D007BF0700501E7536047537008F38753907753A07753B01753C00758203EC
:20097D00C007120557D0070FBF080040AD227F007407C39FF5398F36753700753807753A0B
:20099D0007753B01753C01758200C007120557854182854283120199D007BF0700502274E3
:2009BD0007C39FF539753604753700753807753A07753B01753C00758204C007120557D05C
:2009DD00070FBF080040A9227F007407C39FF5827536007537008F38753907753A07753B06
:2009FD0001753C01C007120557854182854283120199D007BF070050227407C39FF5387526
:200A1D003603753700753900753A07753B01753C00758204C007120557D0070FBF080040F1
:200A3D00A922E582C40354F8FF7E007D00E52275F040A42400FB740035F0FCEF2BFBE43C21
:200A5D00FCED2BFBE43CFCE52275F040A42400F9740035F0FAEF29F9E43AFAED29F582E4B4
:200A7D003AF583E0C313FA8B828C83F00DBD080040BB854382854483C007C006120199D07F
:200A9D0006D0070EBE080040A2227F81C3E49529E46480852AF063F08095F05002D322EF2A
:200ABD0024FEF582752B00752C01C0071202F3901F40120199D007EF14FE752B00752C00BC
:200ADD008E82C0061202F3D0068E07EF70BE901F401201997F00C3E49529E46480852AF0AE
:200AFD0063F08095F05002D322752B01752C018F82C0071202F3901F40120199D007EF2493
:200B1D00F8F582752B01752C00C0071202F3D0070FBF880040C0901F401201997F81C3E4CA
:200B3D009529E46480852AF063F08095F05002D322EF24FEF582752B00752C01C00712022F
:200B5D00F3901F40120199D007DFD3901F401201997F00C3E49529E46480852AF063F080A8
:200B7D0095F05002D322EF24F8F582752B01752C00C0071202F3901F40120199D0070FBFBA
:200B9D00800040CF90EA60120199C3227F00C3E49529E46480852AF063F08095F05002D376
:200BBD00228F367537007538078F39753A07753B01753C01758200C007120557904E2012B4
:200BDD000199D007C3EF64809487501D8F367537007538078F39753A07753B01753C0075EF
:200BFD008200C007120557D0070FC3EF64809488409C7F07C3E49529E46480852AF063F008
:200C1D008095F05002D3228F367537007538078F39753A07753B01753C01758200C0071295
:200C3D000557904E20120199D007C3E464808FF063F08095F0501D8F367537007538078F37
:200C5D0039753A07753B01753C00758200C007120557D0071FEF30E79B7F00C3E49529E49B
:200C7D006480852AF063F08095F05002D3228F367537007538078F39753A07753B01753C30
:200C9D0001758200C007120557904E20120199D007C3EF64809487501D8F3675370075384D
:200CBD00078F39753A07753B01753C00758200C007120557D0070FC3EF64809488409C226E
:200CDD007F07EF24F92445F8A6070FC3EF6480948F40EF7F00C3E49529E46480852AF063B2
:200CFD00F08095F05002D3227E00EE2445F98705C3ED64809488E433FCED33B3E433FB5C3D
:200D1D00601C8D2D8E2E752F078D308E31753201758200C007C0061203B1D006D0070EC32D
:200D3D00EE6480948840C37E00EE2445F9E7FDFB3395E0FC0BBB00010CC3EB9408EC648067
:200D5D009480E433FBED33B3E433FC5B601D0D8D2D8E2E752F078D308E317532007582004A
:200D7D00C007C0061203B1D006D0070EC3EE6480948840B57E00EE2445F98705C3E46480BD
:200D9D008DF063F08095F05003ED14F70EC3EE6480948840E1903A98C007120199D0070F7B
:200DBD00C374908FF063F08095F04003020CF27F00EF2445F97401C39FF70FC3EF6480945E
:200DDD008840EE7F00C3E49529E46480852AF063F08095F05002D3227E00EE2445F98705FC
:200DFD00C3ED64809488E433FCED33B3E433FB5C601C8D2D8E2E752F078D308E3175320111
:200E1D00758200C007C0061203B1D006D0070EC3EE6480948840C37E00EE2445F9E7FDFB4F
:200E3D003395E0FC1BBBFF011CC3EB9407EC64809480E433FBC3E464808DF063F08095F060
:200E5D00E433FC5B601D1D8D2D8E2E752F078D308E31753200758200C007C0061203B1D00F
:200E7D0006D0070EC3EE6480948840AD7E00EE2445F98705C3ED648094875003ED04F70E7A
:200E9D00C3EE6480948840E6903A98C007120199D0070FC374908FF063F08095F0400302C0
:200EBD000DE2C3227F07EF24F9244DF8A6070FC3EF6480948B40EF7F088F061FEE70030208
:200EDD000F8BC3E49529E46480852AF063F08095F05002D3227E00EE244DF98705C3ED647A
:200EFD0080948850227407C39EFC8D368E378C388D398C3A753B00753C018E82C007C00618
:200F1D00120557D006D007EE244DF98705C3ED6480948750230D7407C39EFC8D368E378C9A
:200F3D00388D398C3A753B00753C008E82C007C006120557D006D0070EC3EE6480948440BC
:200F5D00967E00EE244DF98705C374838DF063F08095F05003ED14F70EC3EE6480948440A7
:200F7D00E2903A98C007120199D007020ED67F00EF244DF97405C39FF70FC3EF6480948479
:200F9D0040EE7F038F061FEE7003021057C3E49529E46480852AF063F08095F05002D3229B
:200FBD007E01EE244DF98705C3ED6480948450227407C39EFC8D368E378C388D398C3A756E
:200FDD003B00753C018E82C007C006120557D006D007EE244DF98705C3ED6480948350234D
:200FFD000D7407C39EFC8D368E378C388D398C3A753B00753C008E82C007C006120557D0DB
:20101D0006D0070EC3EE6480948440967E00EE244DF98705C3E464808DF063F08095F05033
:20103D0003ED14F70EC3EE6480948440E1903A98C007120199D007020FA17F01EF244DF985
:20105D007404C39FF70FC3EF6480948440EE7F038F061FEE700302111EC3E49529E46480C2
:20107D00852AF063F08095F05002D3227E01EE244DF9E7FD20E7227407C39EFC8D368E37D1
:20109D008C388D398C3A753B00753C018E82C007C006120557D006D007EE244DF98705C322
:2010BD00E464808DF063F08095F050231D7407C39EFC8D368E378C388D398C3A753B007511
:2010DD003C008E82C007C006120557D006D0070EC3EE6480948440967E01EE244DF987050B
:2010FD00C3ED648094835003ED04F70EC3EE6480948440E6903A98C007120199D00702104E
:20111D006D7F00EF244DF9EF04FEF78E07C3EF6480948440EE7F038F061FEE70030211E486
:20113D00C3E49529E46480852AF063F08095F05002D3227E01EE244DF98705C374838DF08D
:20115D0063F08095F050227407C39EFC8D368E378C388D398C3A753B00753C018E82C007BF
:20117D00C006120557D006D007EE244DF98705C374838DF063F08095F050231D7407C39E92
:20119D00FC8D368E378C388D398C3A753B00753C008E82C007C006120557D006D0070EC374
:2011BD00EE64809484408E7E00EE244DF9E7FD04F70EC3EE6480948440EF903A98C0071280
:2011DD000199D0070211347F03EF24FE244DF8A6070FC3EF6480948640EF7F038F061FEE7F
:2011FD007003021299C3E49529E46480852AF063F08095F05002D3227E01EE244DF98705E4
:20121D007407C39EFC8D368E378C388D398C3A753B00753C018E82C007C006C004C001126B
:20123D000557D001D004D00687050D8D368E378C388D398C3A753B00753C008E82C0061200
:20125D000557D006D0070EC3EE6480948440AB7E00EE244DF98705C374838DF063F08095C1
:20127D00F05003ED14F70EC3EE6480948440E2903A98C007120199D0070211F97F00EF24EF
:20129D004DF97405C39FF70FC3EF6480948440EE7F038F061FEE7003021365C3E49529E4D4
:2012BD006480852AF063F08095F05002D3227E01EE244DF98705C3ED6480948450227407F3
:2012DD00C39EFC8D368E378C388D398C3A753B00753C018E82C007C006120557D006D007A2
:2012FD00EE244DF98705C3ED6480948350230D7407C39EFC8D368E378C388D398C3A753B62
:20131D0000753C008E82C007C006120557D006D0070EC3EE6480948440967E00EE244DF9E0
:20133D008705C3E464808DF063F08095F05003ED14F70EC3EE6480948440E1903A98C00754
:20135D00120199D0070212AF7F00EF244DF97403C39FF70FC3EF6480948440EE754D027F54
:20137D00038F061FEE700302143FC3E49529E46480852AF063F08095F05002D3227E00EE0C
:20139D00244DF9E7FD20E7227407C39EFC8D368E378C388D398C3A753B00753C018E82C0D7
:2013BD0007C006120557D006D007EE244DF9E7FD20E7230D7407C39EFC8D368E378C388D04
:2013DD00398C3A753B00753C008E82C007C006120557D006D0070EC3EE6480948340A07EC0
:2013FD0000EFFC3395E0FD7405C39CFCE49DFDEEFA3395E0FBC3EA9CEB64808DF063F080FB
:20141D0095F05008EE244DF9E7FD14F70EC3EE6480948440CC903A98C007120199D0070216
:20143D00137E7F00EF244DF9EF24FEF70FC3EF6480948440EF7F0A8F061FEE70030214FB83
:20145D00C3E49529E46480852AF063F08095F05002D3227E00EE244DF9E7FD20E7227407A6
:20147D00C39EFC8D368E378C388D398C3A753B00753C018E82C007C006120557D006D00700
:20149D00EE244DF9E7FD20E7231D7407C39EFC8D368E378C388D398C3A753B00753C008E0D
:2014BD0082C007C006120557D006D0070EC3EE6480948440A07E00EE244DF98705C3ED64D4
:2014DD008094875003ED04F70EC3EE6480948440E6903A98C007120199D007021454C3223D
:2014FD00C3E49529E46480852AF063F08095F05002D322753D10753E27758201120600C3F5
:20151D00E49529E46480852AF063F08095F05002D322753D10753E27758202120600C3E4B2
:20153D009529E46480852AF063F08095F05002D322753D10753E27758203120600C3E495E0
:20155D0029E46480852AF063F08095F05002D322753D10753E27758200120600C3E495292F
:20157D00E46480852AF063F08095F05002D322753D10753E27758201120600C3E49529E453
:20159D006480852AF063F08095F05002D322753D10753E27758202120600C3E49529E464B2
:2015BD0080852AF063F08095F05002D322753D10753E27758203120600C3E49529E4648075
:2015DD00852AF063F08095F05002D322755100E55175F008A424CAFD741D35F0FE7552003D
:2015FD00E5522DFAE43EFB7553008A828B83E493F88553F005F0E88002C313D5F0FB20E045
:20161D00030216BC7407C39553F87F01C3E49529E46480852AF063F08095F05002D3228845
:20163D00088F09750A01855282C007C006C005C003C002C000120208D000D002D003D00517
:20165D00D006D0078F017C0019B9FF011CE94C6027EF14F5098808750A00855282C007C01A
:20167D0006C005C003C002C000120208D000D002D003D005D006D007901388C007C006C0B2
:20169D0005C003C002C000120199D000D002D003D005D006D0070FBF0800500302162905D1
:2016BD005374F825534003021607055274F8255240030215FD75439875443A758207120A86
:2016DD003F055174FD255140030215ECC322C3E49529E46480852AF063F08095F05002D3FD
:2016FD0022753D10753E27758200120600C3E49529E46480852AF063F08095F05002D32295
:20171D00753D10753E27758201120600C3E49529E46480852AF063F08095F05002D3227520
:20173D003D10753E27758202120600C3E49529E46480852AF063F08095F05002D322753D37
:20175D0010753E27758203120600C3E49529E46480852AF063F08095F05002D322753D1043
:20177D00753E27758200120600C3E49529E46480852AF063F08095F05002D322753D1075C1
:20179D003E27758201120600C3E49529E46480852AF063F08095F05002D322753D10753ED7
:2017BD0027758202120600C3E49529E46480852AF063F08095F05002D322753D10753E27CD
:2017DD00758203120600C3E49529E46480852AF063F08095F05002D322753D10753E27755E
:2017FD008200120600C3E49529E46480852AF063F08095F05002D322753D10753E27758234
:20181D0001120600C3E49529E46480852AF063F08095F05002D322753D10753E2775820292
:20183D00120600C3E49529E46480852AF063F08095F05002D322753F10754027758200125F
:20185D000775C3E49529E46480852AF063F08095F05002D322753F107540277582011207D3
:20187D0075C3E49529E46480852AF063F08095F05002D322753F1075402775820212077544
:20189D00C3E49529E46480852AF063F08095F05002D322753F10754027758203120775C3D5
:2018BD00E49529E46480852AF063F08095F05002D322753F10754027758200120775C3E497
:2018DD009529E46480852AF063F08095F05002D322753F10754027758201120775C3E495C5
:2018FD0029E46480852AF063F08095F05002D322753F10754027758202120775C3E4952910
:20191D00E46480852AF063F08095F05002D322753F107540277582031207757F007407C3BF
:20193D009FF5388F367537008F39753A07753B01753C01758200C007120557900BB81201DA
:20195D0099D0070FBF080040D4E49529E46480852AF063F08095F05002D322907530120120
:20197D00997541B875420B7582001208C4C3E49529E46480852AF063F08095F05002D32241
:20199D009075301201997541B875420B7582011208C4C3E49529E46480852AF063F080950F
:2019BD00F05002D3229075301201997541B875420B7582021208C4C3E49529E46480852A0F
:2019DD00F063F08095F05002D3229075301201997541B875420B7582031208C4C3E495290D
:2019FD00E46480852AF063F08095F05002D3229075301201997541B875420B7582001208A2
:201A1D00C4C3E49529E46480852AF063F08095F05002D3229075301201997541B875420B69
:201A3D007582011208C4C3E49529E46480852AF063F08095F05002D32290753012019975F2
:201A5D0041B875420B7582021208C4C3E49529E46480852AF063F08095F05002D322907567
:201A7D00301201997541B875420B7582031208C47F077536007537008F38753907753A0756
:201A9D00753B01753C008F82C007120557900BB8120199D007DFDBC322C201C2007F0053B5
:201ABD00877F759850438E04759CD9438E01438E10D2AC758CC0758A00D28CD2A9D2AF7527
:201ADD000800852282C0071201B87508008523821201B8D00730015BC007120179AE82D0FE
:201AFD00078E057E0020000CBDF2EABE00E7D2007F0080E1BF4000502AE52375F040A424A7
:201B1D0000FB740035F0FCEFC423541FC40354F8FA2BFBE43CFC74075F2BF582E43CF5836C
:201B3D00EDF00FBF400040ADC0071202D8D007C20080A2C007120AA7120BA9120CDD120CD9
:201B5D00DD120EC1120EC11214FD1216EBD0079201021AF2C021C0E0C0F0C082C083C0079E
:201B7D00C006C005C004C003C002C001C000C0D075D0007590007F008FF005F0740180022F
:201B9D0025E0D5F0FBF5A0900003C007120199D007E52275F040A42400FD740035F0FEE504
:201BBD0024C40354F82DFDE43EFEEF2DF582E43EF583E0F580900003C007120199D0070F19
:201BDD00BF080040B38524F005F07401800225E0D5F0FBF590AE247F008E828F83A37508CC
:201BFD0008750900121CD8AE828E24758CC0758A00D0D0D000D001D002D003D004D005D03B
:0E1C1D0006D007D083D082D0F0D0E0D02132A4
:201D4A000020406080A0C0E0E4E8ECF0F4F8FCDCBC9C7C5C3C1C1814100C0804254565855D
:201D6A00A5C5C9CDD1D5D9B99979593935312D294A6A8AAAAEB2B6967656524E6F8F9373BD
:201D8A006F8F93734A6A8AAAAEB2B6967656524E25456585A5C5C9CDD1D5D9B99979593905
:201DAA0035312D290020406080A0C0E0E4E8ECF0F4F8FCDCBC9C7C5C3C1C1814100C080495
:181DCA00FF89F59393F589FF0E1F3F7E7E3F1F0E183C7EFF18181818DC
:06005800E478FFF6D8FD7C
:200036007900E94400601B7A00901DE2780075A001E493F2A308B8000205A0D9F4DAF27571
:02005600A0FF09
:1B1C2B0020F71130F6138883A88220F509F6A8837583002280FEF280F5F022B8
:201C4600E508450960467A01E50825E0F508E509334012F509E5829508E583950940030A6B
:201C660080E6C3E50913F509E50813F508C3E5829508F5F0E58395094005F58385F082C310
:0D1C8600E50913F509E50813F508DAE12278
:20005E007800E84400600A790075A000E4F309D8FC7800E84401600C7901900000E4F0A3A0
:04007E00D8FCD9FAD7
:201C93007A10E4FBFCE58225E0F582E58333F583EB33FBEC33FCEB9508F5F0EC9509400665
:091CB300FCABF0438201DADD22F2
:0D002900758153121D46E58260030200261A
:1C1CBC0020F71430F6148883A88220F507E6A88375830022E280F7E49322E02237
:201CD800C2D5E58330E70DD2D5E4C39582F582E49583F583E50930E70BE4C39508F508E444
:161CF8009509F509121C4630D50BE4C39582F582E49583F58322EB
:201D0E00C2D5E58330E70DD2D5E4C39582F582E49583F583E50930E70DB2D5E4C39508F570
:181D2E0008E49509F509121C9330D50BE4C39582F582E49583F5832279
:041D46007582002280
:00000001FF
