:04000000020029329F
:03000B00021628B2
:0100130032BA
:01001B0032B2
:0300230002009D3B
:1B008200752200752301752400E4F525F526E4F527F528E4F529F52A0200261B
:0300260002157050
:20009D00C021C0E0C0F0C082C083C007C006C005C004C003C002C001C000C0D075D000C2DA
:2000BD00AF109802804BE525B52716E526B52811C3E49529E46480852AF063F08095F040A6
:2000DD0030E5272480F582E5283400F583E599F0852782852883A375088075090012178F51
:2000FD0085822785832874012529F529E4352AF52AD2AFD0D0D000D001D002D003D004D037
:20011D0005D006D007D083D082D0F0D0E0D02132C2AFE529452A70067EFF7FFF8037E525B8
:20013D002480F582E5263400F583E0FE7F00852582852683A3750880750900C007C006125C
:20015D00178F858225858326D006D007152974FFB52902152AD2AF8E828F832212012DAE52
:20017D0082AF838E048F05BEFF06BFFF030080EC8C82227F077E02DEFEDFFA22AE82AF8329
:20019D008E048F051EBEFF011FEC4D600DC007C006120190D006D00780E622AF82C2D575D9
:2001BD00F040EF30E704B2D5F404A430D50AF42401C5F0F43400C5F0FEAFF07D00EDC4033D
:2001DD0054F8FC7B00EE2400F9EF3400FAEC29F9E43AFAEB29F582E43AF583E508F00BBB2D
:2001FD00080040E10DBD080040D322AF828FF005F07401800225E0D5F0FBFFE50A604AE5D4
:20021D002275F040A42400FD740035F0FEE509C40354F8FC2DFDE43EFEE508FB2DFDE43E23
:20023D00FEE52275F040A42400F9740035F0FAEC29F9E43AFAEB29F582E43AF583E0FCEF91
:20025D0042048D828E83ECF022E52275F040A42400FD740035F0FEE509C40354F8FC2DFDEE
:20027D00E43EFEE508FB2DFDE43EFEE52275F040A42400F9740035F0FAEC29F9E43AFAEBFE
:20029D0029F582E43AF583EFF4FFE052078D828E83EFF022AF82E52275F040A42400FD74B9
:2002BD000035F0FEE508C40354F82DFDE43EFEEF2DF582E43EF583E509F022E522600875A3
:2002DD00220075230180067522017523007508008523820201B8E582FF33B3E433FE30E0BD
:2002FD0044E52B6007747FC39FFE80028F06EE90180193FEC4035407FD530507EE030354CE
:20031D003FFC530407530603C374BF8FF063F08095F050057407C39EFE8C088E09852C0AE9
:20033D008D8202020822AF8275F00AEF84FE75F00AA4D39FF4FFBF050040010E8E8222E5B0
:20035D0082FF30E704C3E49FFF8F8222AD82AE83AFF0121773FCA908AA09AB0A89828A83A4
:20037D008BF0121773F8C39C50148D828E838FF0E81216E289828A838BF0EC0216E222AFB3
:20039D0082C3EF95085002AF08C3EF95095002AF098F8222AF82E52FC39FFEE530C3952D9A
:2003BD00F534E531C3952EF5358E82C007C00612035CAB82853482C00312035CAA828535A1
:2003DD0082C00212035C858209D002D0038A088B8212039C858233D006D007EF75F00AA45D
:2003FD00FFE52D75F00AA4FAE52E75F00AA4F9C2D575F00AEE30E704B2D5F404A430D50A62
:20041D00F42401C5F0F43400C5F0F58285F083E533F83395E0FB88088B09C007C003C00282
:20043D00C001C0001217C5AC82AD83D000D001D002D003D0078C06C2D575F00AE53430E7ED
:20045D0004B2D5F404A430D50AF42401C5F0F43400C5F0F58285F08388088B09C007C0067E
:20047D00C003C002C001C0001217C5AC82AD83D000D001D002D003D006D0078C34C2D5754E
:20049D00F00AE53530E704B2D5F404A430D50AF42401C5F0F43400C5F0F58285F083880834
:2004BD008B09C007C006C002C0011217C5AC82D001D002D006D0078C357D00C3ED648085B8
:2004DD0033F063F08095F050628F82C007C006C005C002C001120343AC82D001D0028A82B7
:2004FD00C004C002C001120343AB82D001D0028982C003C002C001120343858209D001D016
:20051D0002D003D0048B0885320A8C82C002C001120208D001D002D005D006D007EE2FFFD3
:20053D00E5342AFAE53529F90D809085300885310985320A852F82020208AF8275083A752C
:20055D000900750A4090003775F040C007120369D007E53B6029AE37C3E53A9E5001228528
:20057D00362D8E2E85382F8539308E31853C328F82C007C0061203B1D006D0070E80D985B6
:20059D00362D85372E85382F853930853731853C328F82C0071203B1D00785362D853A2EED
:2005BD0085382F853930853A31853C328F82C0071203B185392D85372E85382F853930858F
:2005DD003A31853C328538821203B1D00785362D85372E8F2F853630853A31853C328F8255
:2005FD000203B1E582FF24FC500122EF2F2F90060F7302072002061B0206770206CF7F00A9
:20061D00E52275F040A42400FD740035F0FEEFC40354F82DFDE43EFE74072DF582E43EF533
:20063D0083E4F0E52275F040A42400FD740035F0FE74382DFDE43EFE7406C39F2DF582E4E4
:20065D003EF58374FFF0853D82853E83C007120199D0070FBF070040A7227F00E52275F0C7
:20067D0040A42400FD740035F0FE74382DFDE43EFE7407C39F2DF582E43EF583E4F0E522D5
:20069D0075F040A42400FD740035F0FE7406C39FC40354F82DF582E43EF58374FFF0853DEA
:2006BD0082853E83C007120199D0070FBF070040AB227F00E52275F040A42400FD74003590
:2006DD00F0FE7407C39FC40354F82DF582E43EF583E4F0E52275F040A42400FD740035F003
:2006FD00FEEF04FC2DF582E43EF58374FFF0853D82853E83C004120199D0048C07BF070028
:20071D0040B2227F00E52275F040A42400FD740035F0FEEF2DF582E43EF583E4F0E52275A4
:20073D00F040A42400FD740035F0FEEF04FCC40354F82DFDE43EFE74072DF582E43EF5830B
:20075D0074FFF0853D82853E83C004120199D0048C07BF070040AE22E582FF24FC500122E9
:20077D00EF2F2F900784730208750207900207DA0208257F008F2D752E00752F008F3075A1
:20079D003107753200758200C0071203B1D007EF04FE752D07752E008E2F753007753107AF
:2007BD007532018E82C0061203B1853F82854083120199D0068E07BF070040B9227E00755F
:2007DD002D07752E008E2F7530077531077532008E82C0061203B1D0067406C39EFD8D2D64
:2007FD00752E00752F078D30753107753201758207C0061203B1853F82854083120199D0E8
:20081D00060EBE070040B8227E007407C39EFD8D2D752E00752F078D3075310775320075E3
:20083D008207C0061203B1D0067406C39EFD752D00752E008D2F7530007531077532018D50
:20085D0082C0061203B1853F82854083120199D0060EBE070040B3227F007407C39FFE75A6
:20087D002D00752E008E2F7530007531077532008E82C0071203B1D007EF04FE8E2D752E12
:20089D0000752F008E30753107753201758200C0061203B1853F82854083120199D0068E63
:2008BD0007BF070040B422E582C40354F8FF7E007D00E52275F040A42400FB740035F0FCC0
:2008DD00EF2BFBE43CFCED2BFBE43CFCE52275F040A42400F9740035F0FAEF29F9E43AFA72
:2008FD00ED29F582E43AF583E0C313FA8B828C83F00DBD080040BB854182854283C007C016
:20091D0006120199D006D0070EBE080040A2227F81C3E49529E46480852AF063F08095F05F
:20093D005002D322EF24FEF582752B00752C01C0071202F3901F40120199D007EF14FE75D3
:20095D002B00752C008E82C0061202F3D0068E07EF70BE901F401201997F00C3E49529E4E6
:20097D006480852AF063F08095F05002D322752B01752C018F82C0071202F3901F40120114
:20099D0099D007EF24F8F582752B01752C00C0071202F3D0070FBF880040C0901F40120109
:2009BD00997F81C3E49529E46480852AF063F08095F05002D322EF24FEF582752B00752C4D
:2009DD0001C0071202F3901F40120199D007DFD3901F401201997F00C3E49529E46480853B
:2009FD002AF063F08095F05002D322EF24F8F582752B01752C00C0071202F3901F4012018D
:200A1D0099D0070FBF800040CF90EA60120199C3227F00C3E49529E46480852AF063F08063
:200A3D0095F05002D3228F367537007538078F39753A07753B01753C01758200C0071205F2
:200A5D0057904E20120199D007C3EF64809487501D8F367537007538078F39753A07753B30
:200A7D0001753C00758200C007120557D0070FC3EF64809488409C7F07C3E49529E4648054
:200A9D00852AF063F08095F05002D3228F367537007538078F39753A07753B01753C017580
:200ABD008200C007120557904E20120199D007C3E464808FF063F08095F0501D8F367537A1
:200ADD00007538078F39753A07753B01753C00758200C007120557D0071FEF30E79B7F0023
:200AFD00C3E49529E46480852AF063F08095F05002D3228F367537007538078F39753A07CB
:200B1D00753B01753C01758200C007120557904E20120199D007C3EF64809487501D8F36C5
:200B3D007537007538078F39753A07753B01753C00758200C007120557D0070FC3EF6480B0
:200B5D009488409C227F07EF24F92443F8A6070FC3EF6480948F40EF7F00C3E49529E4649D
:200B7D0080852AF063F08095F05002D3227E00EE2443F98705C3ED64809488E433FCED335F
:200B9D00B3E433FB5C601C8D2D8E2E752F078D308E31753201758200C007C0061203B1D03C
:200BBD0006D0070EC3EE6480948840C37E00EE2443F9E7FDFB3395E0FC0BBB00010CC3EBA9
:200BDD009408EC64809480E433FBED33B3E433FC5B601D0D8D2D8E2E752F078D308E317589
:200BFD003200758200C007C0061203B1D006D0070EC3EE6480948840B57E00EE2443F987A8
:200C1D0005C3E464808DF063F08095F05003ED14F70EC3EE6480948840E1903A98C00712EC
:200C3D000199D0070FC374908FF063F08095F04003020B777F00EF2443F97401C39FF70F07
:200C5D00C3EF6480948840EE7F00C3E49529E46480852AF063F08095F05002D3227E00EE41
:200C7D002443F98705C3ED64809488E433FCED33B3E433FB5C601C8D2D8E2E752F078D300D
:200C9D008E31753201758200C007C0061203B1D006D0070EC3EE6480948840C37E00EE2487
:200CBD0043F9E7FDFB3395E0FC1BBBFF011CC3EB9407EC64809480E433FBC3E464808DF01F
:200CDD0063F08095F0E433FC5B601D1D8D2D8E2E752F078D308E31753200758200C007C0D5
:200CFD00061203B1D006D0070EC3EE6480948840AD7E00EE2443F98705C3ED64809487505B
:200D1D0003ED04F70EC3EE6480948840E6903A98C007120199D0070FC374908FF063F08012
:200D3D0095F04003020C67C3227F07EF24F9244BF8A6070FC3EF6480948B40EF7F088F06BF
:200D5D001FEE7003020E10C3E49529E46480852AF063F08095F05002D3227E00EE244BF997
:200D7D008705C3ED6480948850227407C39EFC8D368E378C388D398C3A753B00753C018E08
:200D9D0082C007C006120557D006D007EE244BF98705C3ED6480948750230D7407C39EFC23
:200DBD008D368E378C388D398C3A753B00753C008E82C007C006120557D006D0070EC3EE66
:200DDD006480948440967E00EE244BF98705C374838DF063F08095F05003ED14F70EC3EE2B
:200DFD006480948440E2903A98C007120199D007020D5B7F00EF244BF97405C39FF70FC328
:200E1D00EF6480948440EE7F038F061FEE7003020EDCC3E49529E46480852AF063F08095E5
:200E3D00F05002D3227E01EE244BF98705C3ED6480948450227407C39EFC8D368E378C38BB
:200E5D008D398C3A753B00753C018E82C007C006120557D006D007EE244BF98705C3ED64D9
:200E7D0080948350230D7407C39EFC8D368E378C388D398C3A753B00753C008E82C007C096
:200E9D0006120557D006D0070EC3EE6480948440967E00EE244BF98705C3E464808DF063B8
:200EBD00F08095F05003ED14F70EC3EE6480948440E1903A98C007120199D007020E267F98
:200EDD0001EF244BF97404C39FF70FC3EF6480948440EE7F038F061FEE7003020FA3C3E4EF
:200EFD009529E46480852AF063F08095F05002D3227E01EE244BF9E7FD20E7227407C39E53
:200F1D00FC8D368E378C388D398C3A753B00753C018E82C007C006120557D006D007EE24B4
:200F3D004BF98705C3E464808DF063F08095F050231D7407C39EFC8D368E378C388D398C5E
:200F5D003A753B00753C008E82C007C006120557D006D0070EC3EE6480948440967E01EE23
:200F7D00244BF98705C3ED648094835003ED04F70EC3EE6480948440E6903A98C00712015D
:200F9D0099D007020EF27F00EF244BF9EF04FEF78E07C3EF6480948440EE7F038F061FEE6F
:200FBD007003021069C3E49529E46480852AF063F08095F05002D3227E01EE244BF987055A
:200FDD00C374838DF063F08095F050227407C39EFC8D368E378C388D398C3A753B00753CE2
:200FFD00018E82C007C006120557D006D007EE244BF98705C374838DF063F08095F0502337
:20101D001D7407C39EFC8D368E378C388D398C3A753B00753C008E82C007C006120557D0AA
:20103D0006D0070EC3EE64809484408E7E00EE244BF9E7FD04F70EC3EE6480948440EF9000
:20105D003A98C007120199D007020FB97F03EF24FE244BF8A6070FC3EF6480948640EF7F79
:20107D00038F061FEE700302111EC3E49529E46480852AF063F08095F05002D3227E01EE32
:20109D00244BF987057407C39EFC8D368E378C388D398C3A753B00753C018E82C007C00690
:2010BD00C004C001120557D001D004D00687050D8D368E378C388D398C3A753B00753C00D3
:2010DD008E82C006120557D006D0070EC3EE6480948440AB7E00EE244BF98705C374838DB5
:2010FD00F063F08095F05003ED14F70EC3EE6480948440E2903A98C007120199D0070210A5
:20111D007E7F00EF244BF97405C39FF70FC3EF6480948440EE7F038F061FEE70030211EA0D
:20113D00C3E49529E46480852AF063F08095F05002D3227E01EE244BF98705C3ED6480949E
:20115D008450227407C39EFC8D368E378C388D398C3A753B00753C018E82C007C0061205B6
:20117D0057D006D007EE244BF98705C3ED6480948350230D7407C39EFC8D368E378C388D90
:20119D00398C3A753B00753C008E82C007C006120557D006D0070EC3EE6480948440967E0B
:2011BD0000EE244BF98705C3E464808DF063F08095F05003ED14F70EC3EE6480948440E1A9
:2011DD00903A98C007120199D0070211347F00EF244BF97403C39FF70FC3EF64809484405C
:2011FD00EE754B027F038F061FEE70030212C4C3E49529E46480852AF063F08095F050023D
:20121D00D3227E00EE244BF9E7FD20E7227407C39EFC8D368E378C388D398C3A753B007506
:20123D003C018E82C007C006120557D006D007EE244BF9E7FD20E7230D7407C39EFC8D3690
:20125D008E378C388D398C3A753B00753C008E82C007C006120557D006D0070EC3EE6480A0
:20127D00948340A07E00EFFC3395E0FD7405C39CFCE49DFDEEFA3395E0FBC3EA9CEB648057
:20129D008DF063F08095F05008EE244BF9E7FD14F70EC3EE6480948440CC903A98C00712BD
:2012BD000199D0070212037F00EF244BF9EF24FEF70FC3EF6480948440EF7F0A8F061FEE94
:2012DD007003021380C3E49529E46480852AF063F08095F05002D3227E00EE244BF9E7FDC6
:2012FD0020E7227407C39EFC8D368E378C388D398C3A753B00753C018E82C007C0061205E2
:20131D0057D006D007EE244BF9E7FD20E7231D7407C39EFC8D368E378C388D398C3A753BCB
:20133D0000753C008E82C007C006120557D006D0070EC3EE6480948440A07E00EE244BF9B8
:20135D008705C3ED648094875003ED04F70EC3EE6480948440E6903A98C007120199D0076D
:20137D000212D9C322C3E49529E46480852AF063F08095F05002D322753D10753E27758280
:20139D0001120600C3E49529E46480852AF063F08095F05002D322753D10753E2775820217
:2013BD00120600C3E49529E46480852AF063F08095F05002D322753D10753E2775820312E5
:2013DD000600C3E49529E46480852AF063F08095F05002D322753D10753E277582001206D4
:2013FD0000C3E49529E46480852AF063F08095F05002D322753D10753E27758201120600B9
:20141D00C3E49529E46480852AF063F08095F05002D322753D10753E27758202120600C3D4
:20143D00E49529E46480852AF063F08095F05002D322753D10753E27758203120600C3E492
:20145D009529E46480852AF063F08095F05002D322754F00E54F75F008A42481FD7418353F
:20147D00F0FE755000E5502DFAE43EFB7551008A828B83E493F88551F005F0E88002C313D9
:20149D00D5F0FB20E0030215417407C39551F87F01C3E49529E46480852AF063F08095F054
:2014BD005002D32288088F09750A01855082C007C006C005C003C002C000120208D000D076
:2014DD0002D003D005D006D0078F017C0019B9FF011CE94C6027EF14F5098808750A00854D
:2014FD005082C007C006C005C003C002C000120208D000D002D003D005D006D00790138828
:20151D00C007C006C005C003C002C000120199D000D002D003D005D006D0070FBF0800504E
:20153D00030214AE055174F82551400302148C055074F82550400302148275419875423A5A
:20155D007582071208C4054F74FD254F4003021471C322C201C2007F0053877F75985043AD
:20157D008E04759CD9438E01438E10D2AC758CC0758A00D28CD2A9D2AF750800852282C021
:20159D00071201B87508008523821201B8D00730015BC007120179AE82D0078E057E0020FC
:2015BD00000CBDF2EABE00E7D2007F0080E1BF4000502AE52375F040A42400FB740035F090
:2015DD00FCEFC423541FC40354F8FA2BFBE43CFC74075F2BF582E43CF583EDF00FBF40005B
:2015FD0040ADC0071202D8D007C20080A2C00712092C120A2E120B62120B62120D46120D99
:20161D0046121382D00792010215ACC021C0E0C0F0C082C083C007C006C005C004C003C044
:20163D0002C001C000C0D075D0007590007F008FF005F07401800225E0D5F0FBF5A090005C
:20165D0003C007120199D007E52275F040A42400FD740035F0FEE524C40354F82DFDE43EB0
:20167D00FEEF2DF582E43EF583E0F580900003C007120199D0070FBF080040B38524F00589
:20169D00F07401800225E0D5F0FBF590AE247F008E828F83A375080875090012178FAE82FB
:2016BD008E24758CC0758A00D0D0D000D001D002D003D004D005D006D007D083D082D0F0FA
:0516DD00D0E0D0213235
:201801000020406080A0C0E0E4E8ECF0F4F8FCDCBC9C7C5C3C1C1814100C080425456585AB
:20182100A5C5C9CDD1D5D9B99979593935312D294A6A8AAAAEB2B6967656524E6F8F93730B
:201841006F8F93734A6A8AAAAEB2B6967656524E25456585A5C5C9CDD1D5D9B99979593953
:2018610035312D290020406080A0C0E0E4E8ECF0F4F8FCDCBC9C7C5C3C1C1814100C0804E3
:18188100FF89F59393F589FF0E1F3F7E7E3F1F0E183C7EFF181818182A
:06005800E478FFF6D8FD7C
:200036007900E94400601B7A00901899780075A001E493F2A308B8000205A0D9F4DAF275BF
:02005600A0FF09
:1B16E20020F71130F6138883A88220F509F6A8837583002280FEF280F5F02207
:2016FD00E508450960467A01E50825E0F508E509334012F509E5829508E583950940030ABA
:20171D0080E6C3E50913F509E50813F508C3E5829508F5F0E58395094005F58385F082C35E
:0D173D00E50913F509E50813F508DAE122C6
:20005E007800E84400600A790075A000E4F309D8FC7800E84401600C7901900000E4F0A3A0
:04007E00D8FCD9FAD7
:20174A007A10E4FBFCE58225E0F582E58333F583EB33FBEC33FCEB9508F5F0EC95094006B3
:09176A00FCABF0438201DADD2240
:0D0029007581511217FDE58260030200266B
:1C17730020F71430F6148883A88220F507E6A88375830022E280F7E49322E02285
:20178F00C2D5E58330E70DD2D5E4C39582F582E49583F583E50930E70BE4C39508F508E492
:1617AF009509F5091216FD30D50BE4C39582F582E49583F5832288
:2017C500C2D5E58330E70DD2D5E4C39582F582E49583F583E50930E70DB2D5E4C39508F5BF
:1817E50008E49509F50912174A30D50BE4C39582F582E49583F5832216
:0417FD0075820022CF
:00000001FF
