:04000000020029329F
:03000B0002302A96
:0100130032BA
:01001B0032B2
:0300230002009D3B
:1B008200752200752301752400E4F525F526E4F527F528E4F529F52A0200261B
:03002600022F5A4C
:20009D00C021C0E0C0F0C082C083C007C006C005C004C003C002C001C000C0D075D000C2DA
:2000BD00AF109802804BE525B52716E526B52811C3E49529E46480852AF063F08095F040A6
:2000DD0030E5272480F582E5283400F583E599F0852782852883A375088075090012319135
:2000FD0085822785832874012529F529E4352AF52AD2AFD0D0D000D001D002D003D004D037
:20011D0005D006D007D083D082D0F0D0E0D02132C2AFE529452A70067EFF7FFF8037E525B8
:20013D002480F582E5263400F583E0FE7F00852582852683A3750880750900C007C006125C
:20015D003191858225858326D006D007152974FFB52902152AD2AF8E828F832212012DAE36
:20017D0082AF838E048F05BEFF06BFFF030080EC8C82227F077E02DEFEDFFA22AE82AF8329
:20019D008E048F051EBEFF011FEC4D600DC007C006120190D006D00780E622AF82C2D575D9
:2001BD00F040EF30E704B2D5F404A430D50AF42401C5F0F43400C5F0FEAFF07D00EDC4033D
:2001DD0054F8FC7B00EE2400F9EF3400FAEC29F9E43AFAEB29F582E43AF583E508F00BBB2D
:2001FD00080040E10DBD080040D322AF828FF005F07401800225E0D5F0FBFFE50A604AE5D4
:20021D002275F040A42400FD740035F0FEE509C40354F8FC2DFDE43EFEE508FB2DFDE43E23
:20023D00FEE52275F040A42400F9740035F0FAEC29F9E43AFAEB29F582E43AF583E0FCEF91
:20025D0042048D828E83ECF022E52275F040A42400FD740035F0FEE509C40354F8FC2DFDEE
:20027D00E43EFEE508FB2DFDE43EFEE52275F040A42400F9740035F0FAEC29F9E43AFAEBFE
:20029D0029F582E43AF583EFF4FFE052078D828E83EFF022AF82E52275F040A42400FD74B9
:2002BD000035F0FEE508C40354F82DFDE43EFEEF2DF582E43EF583E509F022E522600875A3
:2002DD00220075230180067522017523007508008523820201B8E582FF20E744E52B600706
:2002FD00747FC39FFE80028F06EE90320393FEC4035407FD530507EE0303543FFC530407D4
:20031D00530603C374BF8FF063F08095F050057407C39EFE8C088E09852C0A8D8202020867
:20033D0022AF8275F00AEF84FE75F00AA4D39FF4FFBF050040010E8E8222E582FF30E7042F
:20035D00C3E49FFF8F8222AD82AE83AFF0123175FCA908AA09AB0A89828A838BF0123175F1
:20037D00F8C39C50148D828E838FF0E81230E489828A838BF0EC0230E422AF82C3EF9508C1
:20039D005002AF08C3EF95095002AF098F8222AF82E52FC39FFEE530C3952DF534E531C369
:2003BD00952EF5358E82C007C006120357AB82853482C003120357AA82853582C002120354
:2003DD0057858209D002D0038A088B82120397858233D006D007EF75F00AA4FFE52D75F04A
:2003FD000AA4FAE52E75F00AA4F9C2D575F00AEE30E704B2D5F404A430D50AF42401C5F00A
:20041D00F43400C5F0F58285F083E533F83395E0FB88088B09C007C003C002C001C00012BD
:20043D0031C7AC82AD83D000D001D002D003D0078C06C2D575F00AE53430E704B2D5F404E1
:20045D00A430D50AF42401C5F0F43400C5F0F58285F08388088B09C007C006C003C002C0BC
:20047D0001C0001231C7AC82AD83D000D001D002D003D006D0078C34C2D575F00AE5353033
:20049D00E704B2D5F404A430D50AF42401C5F0F43400C5F0F58285F08388088B09C007C05D
:2004BD0006C002C0011231C7AC82D001D002D006D0078C357D00C3ED64808533F063F080C1
:2004DD0095F050628F82C007C006C005C002C00112033EAC82D001D0028A82C004C002C06C
:2004FD000112033EAB82D001D0028982C003C002C00112033E858209D001D002D003D004BD
:20051D008B0885320A8C82C002C001120208D001D002D005D006D007EE2FFFE5342AFAE55A
:20053D003529F90D809085300885310985320A852F8202020885823D753E00750838750981
:20055D0000750A4090003D75F040120364750839750900750A4090003675F0401203647588
:20057D00083A750900750A4090003775F040120364AE3D8E05C3E5389D40138DF005F074C6
:20059D0001800225E0D5F0FBFC423E0D80E7E53C7005E53EF4F53EE53B700302068BE53CDF
:2005BD006066AE378E05C3E53A9D500122AC368C03C3E5399B404EE52275F040A42400F906
:2005DD00740035F0FAEBC40354F8F829F9E43AFAED29F53FE43AF540E52275F040A424002A
:2005FD00FA740035F0FFE82AFAE43FFFED2AF582E43FF583E0FFE53E4207853F828540831C
:20061D00EFF00B80AC0D809EAE378E07C3E53A9F500122AC368C05C3E5399D404EE5227513
:20063D00F040A42400FA740035F0FBEDC40354F8F92AFAE43BFBEF2AF53FE43BF540E52238
:20065D0075F040A42400F8740035F0FBE928F9E43BFAEF29F582E43AF583E0FBE53E5203E9
:20067D00853F82854083EBF00D80AC0F809EE53C70030207BDE52275F040A42400FD74004F
:20069D0035F0FFE536C40354F8FB2DFDE43FFFE537FA2DFDE43FFFE52275F040A42400F8D6
:2006BD00740035F0F9EB28F8E439F9EA28F582E439F583E0FBE53E42038D828F83EBF0E528
:2006DD002275F040A42400FD740035F0FFE539C40354F8FB2DFDE43FFFE537FA2DFDE43FFE
:2006FD00FFE52275F040A42400F8740035F0F9EB28F8E439F9EA28F582E439F583E0FBE5E1
:20071D003E42038D828F83EBF0E52275F040A42400FD740035F0FFE536C40354F8FB2DFDE1
:20073D00E43FFFE53AFA2DFDE43FFFE52275F040A42400F8740035F0F9EB28F8E439F9EA0C
:20075D0028F582E439F583E0FBE53E42038D828F83EBF0E52275F040A42400FD740035F0FF
:20077D00FFE539C40354F8FB2DFDE43FFFE53AFA2DFDE43FFFE52275F040A42400F87400A0
:20079D0035F0F9EB28F8E439F9EA28F582E439F583E0FBE53E42038D828F83EBF00208E5B1
:2007BD00E52275F040A42400FD740035F0FFE536C40354F8FB2DFDE43FFFE537FA2DFDE47A
:2007DD003FFFE52275F040A42400F8740035F0F9EB28F8E439F9EA28F582E439F583E0FBA6
:2007FD00E53E52038D828F83EBF0E52275F040A42400FD740035F0FFE539C40354F8FB2D06
:20081D00FDE43FFFE537FA2DFDE43FFFE52275F040A42400F8740035F0F9EB28F8E439F91B
:20083D00EA28F582E439F583E0FBE53E52038D828F83EBF0E52275F040A42400FD74003514
:20085D00F0FFE536C40354F8FB2DFDE43FFFE53AFA2DFDE43FFFE52275F040A42400F874D2
:20087D000035F0F9EB28F8E439F9EA28F582E439F583E0FBE53E52038D828F83EBF0E522A8
:20089D0075F040A42400FD740035F0FFE539C40354F8FB2DFDE43FFFE53AFA2DFDE43FFF5C
:2008BD00E52275F040A42400F8740035F0F9EB28F8E439F9EA28F582E439F583E0FBE53EE0
:2008DD0052038D828F83EBF0853DF005F07401800225E0D5F0FBFF8538F005F074018002AF
:2008FD0025E0D5F0FBFD4FF53EE53C7005E53EF4F53EE53C70030209E2AC37C3E53A9C4095
:20091D005DAE368E07C3E5399F404AE52275F040A42400FB740035F0FDEFC40354F8FA2BAE
:20093D00FBE43DFDEC2BFBE43DFDE52275F040A42400F8740035F0F9EA28F8E439F9EC281F
:20095D00F582E439F583E0FAE53E42028B828D83EAF00F80B0E53AC395372CFC809DAC3622
:20097D00C3E5399C500122AE37ECC40354F8FF8E05C3E53A9D4045E52275F040A42400FA82
:20099D00740035F0FBEF2AFAE43BFBED2AFAE43BFBE52275F040A42400F8740035F0F9EF61
:2009BD0028F8E439F9ED28F582E439F583E0F9E53E42018A828B83E9F00D80B5E539C395D9
:2009DD00362CFC809BAC37C3E53A9C405DAE368E07C3E5399F404AE52275F040A42400FD8F
:2009FD00740035F0FEEFC40354F8FB2DFDE43EFEEC2DFDE43EFEE52275F040A42400F974E5
:200A1D000035F0FAEB29F9E43AFAEC29F582E43AF583E0FBE53E52038D828E83EBF00F8076
:200A3D00B0E53AC395372CFC809DAC36C3E5399C405CAF37ECC40354F8FEC3E53A9F404512
:200A5D00E52275F040A42400FB740035F0FDEE2BFBE43DFDEF2BFBE43DFDE52275F040A4BF
:200A7D002400F9740035F0FAEE29F9E43AFAEF29F582E43AF583E0FAE53E52028B828D83EE
:200A9D00EAF00F80B5E539C395362CFC809E22AF82750845750900750A4090004275F04060
:200ABD00C007120364D007E5466029AE42C3E5459E50012285412D8E2E85432F8544308E33
:200ADD00318547328F82C007C0061203ACD006D0070E80D985412D85422E85432F8544307F
:200AFD008542318547328F82C0071203ACD00785412D85452E85432F8544308545318547D1
:200B1D00328F82C0071203AC85442D85422E85432F8544308545318547328543821203AC0E
:200B3D00D00785412D85422E8F2F8541308545318547328F820203ACE582FF24FC50012271
:200B5D00EF2F2F900B6473020C75020B70020BCC020C247F00E52275F040A42400FD74004A
:200B7D0035F0FEEFC40354F82DFDE43EFE74072DF582E43EF583E4F0E52275F040A42400E8
:200B9D00FD740035F0FE74382DFDE43EFE7406C39F2DF582E43EF58374FFF0854882854914
:200BBD0083C007120199D0070FBF070040A7227F00E52275F040A42400FD740035F0FE7472
:200BDD00382DFDE43EFE7407C39F2DF582E43EF583E4F0E52275F040A42400FD740035F07D
:200BFD00FE7406C39FC40354F82DF582E43EF58374FFF0854882854983C007120199D00760
:200C1D000FBF070040AB227F00E52275F040A42400FD740035F0FE7407C39FC40354F82D31
:200C3D00F582E43EF583E4F0E52275F040A42400FD740035F0FEEF04FC2DF582E43EF5837D
:200C5D0074FFF0854882854983C004120199D0048C07BF070040B2227F00E52275F040A4F4
:200C7D002400FD740035F0FEEF2DF582E43EF583E4F0E52275F040A42400FD740035F0FE96
:200C9D00EF04FCC40354F82DFDE43EFE74072DF582E43EF58374FFF0854882854983C0046B
:200CBD00120199D0048C07BF070040AE22E582FF24FC500122EF2F2F900CD973020DCA0225
:200CDD000CE5020D2F020D7A7F008F2D752E00752F008F30753107753200758200C00712DA
:200CFD0003ACD007EF04FE752D07752E008E2F7530077531077532018E82C0061203AC853A
:200D1D004A82854B83120199D0068E07BF070040B9227E00752D07752E008E2F75300775F7
:200D3D0031077532008E82C0061203ACD0067406C39EFD8D2D752E00752F078D3075310700
:200D5D00753201758207C0061203AC854A82854B83120199D0060EBE070040B8227E007444
:200D7D0007C39EFD8D2D752E00752F078D30753107753200758207C0061203ACD006740603
:200D9D00C39EFD752D00752E008D2F7530007531077532018D82C0061203AC854A82854B26
:200DBD0083120199D0060EBE070040B3227F007407C39FFE752D00752E008E2F75300075B3
:200DDD0031077532008E82C0071203ACD007EF04FE8E2D752E00752F008E307531077532A3
:200DFD0001758200C0061203AC854A82854B83120199D0068E07BF070040B422E582FF2436
:200E1D00FC500122EF2F2F900E2873020F3A020E34020E8A020EE07F007407C39FF5448F83
:200E3D0041754200754307754507754601754701758200C007120AAC854C82854D83120163
:200E5D0099D007BF0700501E7541037542007543008F44754507754601754700758203C0E3
:200E7D0007120AACD0070FBF080040AD227F007407C39FF5827541007542008F43754407F8
:200E9D00754507754601754701C007120AAC854C82854D83120199D007BF0700501E754157
:200EBD00047542008F43754407754507754601754700758203C007120AACD0070FBF080059
:200EDD0040AD227F007407C39FF5448F41754200754307754507754601754701758200C01A
:200EFD0007120AAC854C82854D83120199D007BF070050227407C39FF5447541047542001C
:200F1D00754307754507754601754700758204C007120AACD0070FBF080040A9227F007487
:200F3D0007C39FF5827541007542008F43754407754507754601754701C007120AAC854C1B
:200F5D0082854D83120199D007BF070050227407C39FF543754103754200754400754507E3
:200F7D00754601754700758204C007120AACD0070FBF080040A922E582C40354F8FF7E00A3
:200F9D007D00E52275F040A42400FB740035F0FCEF2BFBE43CFCED2BFBE43CFCE52275F0E7
:200FBD0040A42400F9740035F0FAEF29F9E43AFAED29F582E43AF583E0C313FA8B828C8368
:200FDD00F00DBD080040BB854E82854F83C007C006120199D006D0070EBE080040A222AF1E
:200FFD0082755500EF75F008A42483F556743235F0F55775520074F92552401DE55204FB41
:20101D007541007542008B437544077545077546017547018B82120AAC75410075420085B7
:20103D005543754407754507754601754700855582120AAC755400E55204F5557A008AF09C
:20105D0005F07401800225E0D5F0FBF942540AC3E5529A50E9755300E52275F040A4240020
:20107D00F8740035F0F9E553C40354F8FE28F8E439F9740328F8E439F9E52275F040A42429
:20109D0000FB740035F0FCEE2BFBE43CFC74032BFBE43CFCE5532556FAE43557FF8A828F03
:2010BD0083E493FDE55452058B828C83E0420588828983EDF0E52275F040A42400FC740072
:2010DD0035F0FDEE2CFCE43DFD74042CFCE43DFDE52275F040A42400F9740035F0FBEE29C7
:2010FD00F9E43BFB740429F9E43BFB8A828F83E493FAE554520289828B83E0F942028C82AC
:20111D008D83EAF0055374F825534003021075855082855183120199055274F825524003E9
:20113D00021013227F00EFC40354F8FE7D00E52275F040A42400FB740035F0FCEE2BFBE453
:20115D003CFCED2BFBE43CFCE52275F040A42400F9740035F0FAEE29F9E43AFAED29F58256
:20117D00E43AF583E025E0FA8B828C83F00DBD080040BB0FBF080040AD227F81C3E49529BA
:20119D00E46480852AF063F08095F05002D322EF24FEF582752B00752C01C0071202F39004
:2011BD001F40120199D007EF14FE752B00752C008E82C0061202F3D0068E07EF70BE901FDA
:2011DD00401201997F00C3E49529E46480852AF063F08095F05002D322752B01752C018F4A
:2011FD0082C0071202F3901F40120199D007EF24F8F582752B01752C00C0071202F3D007A7
:20121D000FBF880040C0901F401201997F81C3E49529E46480852AF063F08095F05002D377
:20123D0022EF24FEF582752B00752C01C0071202F3901F40120199D007DFD3901F401201B1
:20125D00997F00C3E49529E46480852AF063F08095F05002D322EF24F8F582752B01752C2A
:20127D0000C0071202F3901F40120199D0070FBF800040CF90EA60120199C3227F00C3E423
:20129D009529E46480852AF063F08095F05002D3228F417542007543078F447545077546D8
:2012BD0001754701758200C007120AAC904E20120199D007C3EF64809487501D8F417542A7
:2012DD00007543078F44754507754601754700758200C007120AACD0070FC3EF6480948808
:2012FD00409C7F07C3E49529E46480852AF063F08095F05002D3228F417542007543078F2F
:20131D0044754507754601754701758200C007120AAC904E20120199D007C3E464808FF021
:20133D0063F08095F0501D8F417542007543078F44754507754601754700758200C00712A9
:20135D000AACD0071FEF30E79B7F00C3E49529E46480852AF063F08095F05002D3228F4169
:20137D007542007543078F44754507754601754701758200C007120AAC904E20120199D0CD
:20139D0007C3EF64809487501D8F417542007543078F44754507754601754700758200C002
:2013BD0007120AACD0070FC3EF64809488409C227F07EF24F92458F8A6070FC3EF648094BF
:2013DD008F40EF7F00C3E49529E46480852AF063F08095F05002D3227E00EE2458F98705DB
:2013FD00C3ED64809488E433FCED33B3E433FB5C601C8D2D8E2E752F078D308E317532010B
:20141D00758200C007C0061203ACD006D0070EC3EE6480948840C37E00EE2458F9E7FDFB3B
:20143D003395E0FC0BBB00010CC3EB9408EC64809480E433FBED33B3E433FC5B601D0D8D80
:20145D002D8E2E752F078D308E31753200758200C007C0061203ACD006D0070EC3EE648023
:20147D00948840B57E00EE2458F98705C3E464808DF063F08095F05003ED14F70EC3EE6403
:20149D0080948840E1903A98C007120199D0070FC374908FF063F08095F040030213E27F60
:2014BD0000EF2458F97401C39FF70FC3EF6480948840EE7F00C3E49529E46480852AF06340
:2014DD00F08095F05002D3227E00EE2458F98705C3ED64809488E433FCED33B3E433FB5C42
:2014FD00601C8D2D8E2E752F078D308E31753201758200C007C0061203ACD006D0070EC34B
:20151D00EE6480948840C37E00EE2458F9E7FDFB3395E0FC1BBBFF011CC3EB9407EC64804E
:20153D009480E433FBC3E464808DF063F08095F0E433FC5B601D1D8D2D8E2E752F078D3022
:20155D008E31753200758200C007C0061203ACD006D0070EC3EE6480948840AD7E00EE24DA
:20157D0058F98705C3ED648094875003ED04F70EC3EE6480948840E6903A98C007120199CD
:20159D00D0070FC374908FF063F08095F040030214D2C3227F07EF24F92460F8A6070FC30D
:2015BD00EF6480948B40EF7F088F061FEE700302167BC3E49529E46480852AF063F080958A
:2015DD00F05002D3227E00EE2460F98705C3ED6480948850227407C39EFC8D418E428C43DB
:2015FD008D448C457546007547018E82C007C006120AACD006D007EE2460F98705C3ED6497
:20161D0080948750230D7407C39EFC8D418E428C438D448C457546007547008E82C007C09D
:20163D0006120AACD006D0070EC3EE6480948440967E00EE2460F98705C374838DF063F082
:20165D008095F05003ED14F70EC3EE6480948440E2903A98C007120199D0070215C67F0038
:20167D00EF2460F97405C39FF70FC3EF6480948440EE7F038F061FEE7003021747C3E495F1
:20169D0029E46480852AF063F08095F05002D3227E01EE2460F98705C3ED6480948450226A
:2016BD007407C39EFC8D418E428C438D448C457546007547018E82C007C006120AACD00673
:2016DD00D007EE2460F98705C3ED6480948350230D7407C39EFC8D418E428C438D448C450D
:2016FD007546007547008E82C007C006120AACD006D0070EC3EE6480948440967E00EE2423
:20171D0060F98705C3E464808DF063F08095F05003ED14F70EC3EE6480948440E1903A98DE
:20173D00C007120199D0070216917F01EF2460F97404C39FF70FC3EF6480948440EE7F036F
:20175D008F061FEE700302180EC3E49529E46480852AF063F08095F05002D3227E01EE2433
:20177D0060F9E7FD20E7227407C39EFC8D418E428C438D448C457546007547018E82C007B0
:20179D00C006120AACD006D007EE2460F98705C3E464808DF063F08095F050231D7407C3CC
:2017BD009EFC8D418E428C438D448C457546007547008E82C007C006120AACD006D0070ECC
:2017DD00C3EE6480948440967E01EE2460F98705C3ED648094835003ED04F70EC3EE64806A
:2017FD00948440E6903A98C007120199D00702175D7F00EF2460F9EF04FEF78E07C3EF64EE
:20181D0080948440EE7F038F061FEE70030218D4C3E49529E46480852AF063F08095F050EC
:20183D0002D3227E01EE2460F98705C374838DF063F08095F050227407C39EFC8D418E42A7
:20185D008C438D448C457546007547018E82C007C006120AACD006D007EE2460F98705C3B6
:20187D0074838DF063F08095F050231D7407C39EFC8D418E428C438D448C45754600754791
:20189D00008E82C007C006120AACD006D0070EC3EE64809484408E7E00EE2460F9E7FD04BF
:2018BD00F70EC3EE6480948440EF903A98C007120199D0070218247F03EF24FE2460F8A68B
:2018DD00070FC3EF6480948640EF7F038F061FEE7003021989C3E49529E46480852AF0638C
:2018FD00F08095F05002D3227E01EE2460F987057407C39EFC8D418E428C438D448C4575BD
:20191D0046007547018E82C007C006C004C001120AACD001D004D00687050D8D418E428C7F
:20193D00438D448C457546007547008E82C006120AACD006D0070EC3EE6480948440AB7EBF
:20195D0000EE2460F98705C374838DF063F08095F05003ED14F70EC3EE6480948440E2902C
:20197D003A98C007120199D0070218E97F00EF2460F97405C39FF70FC3EF6480948440EE83
:20199D007F038F061FEE7003021A55C3E49529E46480852AF063F08095F05002D3227E0138
:2019BD00EE2460F98705C3ED6480948450227407C39EFC8D418E428C438D448C4575460053
:2019DD007547018E82C007C006120AACD006D007EE2460F98705C3ED6480948350230D7485
:2019FD0007C39EFC8D418E428C438D448C457546007547008E82C007C006120AACD006D0D5
:201A1D00070EC3EE6480948440967E00EE2460F98705C3E464808DF063F08095F05003EDFC
:201A3D0014F70EC3EE6480948440E1903A98C007120199D00702199F7F00EF2460F97403DA
:201A5D00C39FF70FC3EF6480948440EE7560027F038F061FEE7003021B2FC3E49529E464BE
:201A7D0080852AF063F08095F05002D3227E00EE2460F9E7FD20E7227407C39EFC8D418E61
:201A9D00428C438D448C457546007547018E82C007C006120AACD006D007EE2460F9E7FD9D
:201ABD0020E7230D7407C39EFC8D418E428C438D448C457546007547008E82C007C00612C5
:201ADD000AACD006D0070EC3EE6480948340A07E00EFFC3395E0FD7405C39CFCE49DFDEE9E
:201AFD00FA3395E0FBC3EA9CEB64808DF063F08095F05008EE2460F9E7FD14F70EC3EE646A
:201B1D0080948440CC903A98C007120199D007021A6E7F00EF2460F9EF24FEF70FC3EF64B6
:201B3D0080948440EF7F0A8F061FEE7003021BEBC3E49529E46480852AF063F08095F050A7
:201B5D0002D3227E00EE2460F9E7FD20E7227407C39EFC8D418E428C438D448C45754600D9
:201B7D007547018E82C007C006120AACD006D007EE2460F9E7FD20E7231D7407C39EFC8D7E
:201B9D00418E428C438D448C457546007547008E82C007C006120AACD006D0070EC3EE64FA
:201BBD0080948440A07E00EE2460F98705C3ED648094875003ED04F70EC3EE648094844036
:201BDD00E6903A98C007120199D007021B44C322C3E49529E46480852AF063F08095F0509C
:201BFD0002D322754810754927758201120B55C3E49529E46480852AF063F08095F050023F
:201C1D00D322754810754927758202120B55C3E49529E46480852AF063F08095F05002D34C
:201C3D0022754810754927758203120B55C3E49529E46480852AF063F08095F05002D322DC
:201C5D00754810754927758200120B55C3E49529E46480852AF063F08095F05002D322756C
:201C7D004810754927758201120B55C3E49529E46480852AF063F08095F05002D322754878
:201C9D0010754927758202120B55C3E49529E46480852AF063F08095F05002D3227548108F
:201CBD00754927758203120B55C3E49529E46480852AF063F08095F05002D322756400E58D
:201CDD006475F008A424F7FD743235F0FE756500E5652DFAE43EFB7566008A828B83E493BD
:201CFD00F88566F005F0E88002C313D5F0FB20E003021DAC7407C39566F87F01C3E495291B
:201D1D00E46480852AF063F08095F05002D32288088F09750A01856582C007C006C005C07A
:201D3D0003C002C000120208D000D002D003D005D006D0078F017C0019B9FF011CE94C605F
:201D5D0027EF14F5098808750A00856582C007C006C005C003C002C000120208D000D0026E
:201D7D00D003D005D006D007901388C007C006C005C003C002C000120199D000D002D0030E
:201D9D00D005D006D0070FBF08005003021D19056674F825664003021CF7056574F8256529
:201DBD004003021CED754E98754F3A758207120F94056474FD25644003021CDCC322C3E480
:201DDD009529E46480852AF063F08095F05002D322754810754927758200120B55C3E495CB
:201DFD0029E46480852AF063F08095F05002D322754810754927758201120B55C3E4952916
:201E1D00E46480852AF063F08095F05002D322754810754927758202120B55C3E49529E439
:201E3D006480852AF063F08095F05002D322754810754927758203120B55C3E49529E46498
:201E5D0080852AF063F08095F05002D322754810754927758200120B55C3E49529E464805F
:201E7D00852AF063F08095F05002D322754810754927758201120B55C3E49529E464808539
:201E9D002AF063F08095F05002D322754810754927758202120B55C3E49529E46480852A73
:201EBD00F063F08095F05002D322754810754927758203120B55C3E49529E46480852AF08C
:201EDD0063F08095F05002D322754810754927758200120B55C3E49529E46480852AF063FC
:201EFD00F08095F05002D322754810754927758201120B55C3E49529E46480852AF063F04E
:201F1D008095F05002D322754810754927758202120B55C3E49529E46480852AF063F0809C
:201F3D0095F05002D322754A10754B27758200120CCAC3E49529E46480852AF063F08095EF
:201F5D00F05002D322754A10754B27758201120CCAC3E49529E46480852AF063F08095F073
:201F7D005002D322754A10754B27758202120CCAC3E49529E46480852AF063F08095F050F2
:201F9D0002D322754A10754B27758203120CCAC3E49529E46480852AF063F08095F050021F
:201FBD00D322754A10754B27758200120CCAC3E49529E46480852AF063F08095F05002D331
:201FDD0022754A10754B27758201120CCAC3E49529E46480852AF063F08095F05002D322C1
:201FFD00754A10754B27758202120CCAC3E49529E46480852AF063F08095F05002D322754D
:20201D004A10754B27758203120CCA7F007407C39FF5438F417542008F4475450775460115
:20203D00754701758200C007120AAC900BB8120199D0070FBF080040D4E49529E464808591
:20205D002AF063F08095F05002D322907530120199754CB8754D0B758200120E19C3E49517
:20207D0029E46480852AF063F08095F05002D322907530120199754CB8754D0B75820112E3
:20209D000E19C3E49529E46480852AF063F08095F05002D322907530120199754CB8754D75
:2020BD000B758202120E19C3E49529E46480852AF063F08095F05002D3229075301201997A
:2020DD00754CB8754D0B758203120E19C3E49529E46480852AF063F08095F05002D322906F
:2020FD007530120199754CB8754D0B758200120E19C3E49529E46480852AF063F08095F0D8
:20211D005002D322907530120199754CB8754D0B758201120E19C3E49529E46480852AF037
:20213D0063F08095F05002D322907530120199754CB8754D0B758202120E19C3E49529E441
:20215D006480852AF063F08095F05002D322907530120199754CB8754D0B758203120E19E6
:20217D007F077541007542008F437544077545077546017547008F82C007120AAC900BB891
:20219D00120199D007DFDBC3227F057550107551278F82C007120FFCD007C3E49529E46441
:2021BD0080852AF063F08095F05002D32290EA60C007120199D007C3E49529E46480852A44
:2021DD00F063F08095F05002D32290EA60C007120199D0070FBF080040B1227F00C3E4958B
:2021FD0029E46480852AF063F08095F05002D3227541007542008F43754407754507754618
:20221D00017547018F82C007120AACD007EF6020EF14FE7541007542008E43754407754544
:20223D00077546017547008E82C007120AACD007902710C007120199D0070FC3EF64809442
:20225D0088409A754A10754B27758203120CCA754A10754B27758200120CCA754A10754B43
:20227D0027758201120CCA7F00C3E49529E46480852AF063F08095F05002D3227406C39F74
:20229D00FE8E2D752E008E2F8E307531077532018E82C0071203ACD007752D07752E008FAB
:2022BD002F7530077531077532008F82C0071203AC902710120199D0070FC3EF648094872F
:2022DD0040A77F00EF2469F8760E0FC3EF6480948840F17567007508008522821201B87EC6
:2022FD0000EE2469F9870575F01CED84E5F09032C393FBC4035407FAEB0303543FFB7407D1
:20231D005BF5717F00ED24F2F582EF34FFF58375081C750900C006C002123191AD82D002D8
:20233D00D0068D04EC9032C393FFC4035407FDEF0303543FFF53070785712D8E2E8D2F8FE5
:20235D00308E317532018A82C0061203ACD0060EBE0800408C756800E567F5723395E0F593
:20237D0073856874757500C3E5749572E57564808573F063F08095F0E433F576E57224B92B
:20239D00F572E57334FFF573C3E5729574E57364808575F063F08095F0E433FE55766009DC
:2023BD00E5682469F9E7FE04F7056874F8256850A7C3E49529E46480852AF063F08095F0CC
:2023DD005002D3229013881201990567C3E567648094D550030222F3756700C3E49529E46B
:2023FD006480852AF063F08095F05002D3227508008522821201B8756800E5682469F987F6
:20241D007675F01CE57684E5F09032C393FEC4035407FAEE0303543FFE74075EF571AB76DD
:20243D007E00EB24F2F582EE34FFF58375081C750900C002123191AB82D0028B04EC903207
:20245D00C393FEC4035407FDEE0303543FFE74075EFF85712D85682E8D2F8F308568317543
:20247D0032018A821203AC056874F82568508B756800E567F5743395E0F575856872757313
:20249D0000C3E5729574E57364808575F063F08095F0E433F576E57424B9FBE57534FFFE40
:2024BD00C3EB9572EE64808573F063F08095F0E433FB55766009E5682469F9E7FE14F7052A
:2024DD006874F8256850AB9013881201990567C3E567648094D550030223F8756700C3E4F1
:2024FD009529E46480852AF063F08095F05002D3227508008522821201B875F01CE5698437
:20251D00E5F09032C393FBC4035407FAEB0303543FFB74075BF571AB697E00EB24F2F582D5
:20253D00EE34FFF58375081C750900C002123191AB82D0028B04EC9032C393FEC403540786
:20255D00FDEE0303543FFE74075EFF8571417542008D438F447545077546007547018A822E
:20257D00C007C005C002120AACD002D005D0078571417542018D438F447545067546007528
:20259D0047018A82120AACE56904F5699013881201990567C3E5676480949D50030224FB77
:2025BD007F00C3E49529E46480852AF063F08095F05002D322750800852282C0071201B8DC
:2025DD0075F01CE56984E5F09032C393FEC4035407FAEE0303543FFE74075EF571AD697E2C
:2025FD0000ED24F2F582EE34FFF58375081C750900C002123191AD82D0028D04EC9032C3FB
:20261D0093FEC4035407F543EE0303543FFE74075EF544857141754200754507754601753B
:20263D0047018A82120AACE56914F569901388120199D0070FC3EF6480949050030225BFF1
:20265D007F00C3E49529E46480852AF063F08095F05002D3228F2D752E00752F00753000CB
:20267D008F317532008F82C0071203AC901388120199D0070FC3EF6480948840C57F01C386
:20269D00E49529E46480852AF063F08095F05002D3228F2D752E07752F077530078F317583
:2026BD0032008F82C0071203AC901388120199D0070FC3EF6480948740C57F01C3E49529DA
:2026DD00E46480852AF063F08095F05002D322750800852282C0071201B8D0077407C39FEB
:2026FD00FE7536077537078E388E398E3A753B00753C01758207C00712055290271012019B
:20271D0099D0070FC3EF6480948840B07F01C3E49529E46480852AF063F08095F05002D3B2
:20273D0022750800852282C0071201B8D0077407C39FFE7536007537008E388E398E3A754F
:20275D003B00753C01758200C007120552902710120199D0070FC3EF6480948740B07F01CE
:20277D00C3E49529E46480852AF063F08095F05002D322750800852282C0071201B8D007C2
:20279D007536007537008F388F398F3A753B00753C01758200C00712055290271012019971
:2027BD00D0070FC3EF6480948840B57F01C3E49529E46480852AF063F08095F05002D32284
:2027DD00750800852282C0071201B8D0077407C39FFE7536007537008F388E398E3A753B95
:2027FD0000753C01758207C007120552902710120199D0070FC3EF6480948740B07F01C39F
:20281D00E49529E46480852AF063F08095F05002D3227407C39FF5387536007537008F39CA
:20283D008F3A753B01753C01758207C007120552902710120199D0070FC3EF6480948840D6
:20285D00BE7F01C3E49529E46480852AF063F08095F05002D322750800852282C007120132
:20287D00B8D0077407C39FF5387536077537078F398F3A753B01753C01758200C007120574
:20289D0052902710120199D0070FC3EF6480948740B1227F01C3E49529E46480852AF063FD
:2028BD00F08095F05002D322750800852282C0071201B8753606753706753801753907754C
:2028DD003A07753B01753C01758200120552D0077406C39FFEEF04FD7407C39FFC753606AC
:2028FD008E378D387539078C3A753B01753C018F82C007C006C005C004120552D004D0051A
:20291D00D006D0077536067537068D38753907753A07753B01753C018F82C007C006C00594
:20293D00C004120552D004D005D0067536068E377538017539078C3A753B01753C017582D5
:20295D0000C006C005C004120552D004D005D0068E367537067538018C39753A07753B01D3
:20297D00753C01758200C006C005C004120552D004D005D006D0078E368E378D388C398CE4
:20299D003A753B01753C018F82C007C006C005C004120552D004D005D006D0078E36753727
:2029BD00068D388C39753A07753B01753C018F82C006C005C004120552D004D005D0068E7B
:2029DD00368E377538018C398C3A753B01753C01758200C005120552907530120199D00568
:2029FD008D07BF070050030228B27F00EF2478F9EF75F006A4F70FBF040040F0757700C388
:202A1D00E49529E46480852AF063F08095F05002D3227508008522821201B87E00EE247878
:202A3D00F9870575F018ED84E5F09032DF93FCC4540FFB53040FEB04FAEC04FF8C36753733
:202A5D00008A388F39753A01753B01753C018B82C007C006C004C003C002120552D002D0CE
:202A7D0003D004D006D0078C367537068A388F39753A07753B01753C018B82C00612055262
:202A9D00D0060EBE040040957F00EF2478F9E7FE04F70FBF040040F29027101201990577C8
:202ABD0074DD25774003022A1C757700C3E49529E46480852AF063F08095F05002D32275B5
:202ADD0008008522821201B87E00EE2478F9870275F018EA84E5F09032DF93FAC4540FFB43
:202AFD00740F5AFCEB04FAEC04FF8C367537008A388F39753A01753B01753C018B82C00729
:202B1D00C006C004C003C002120552D002D003D004D006D0078C367537068A388F39753A4D
:202B3D0007753B01753C018B82C006120552D0060EBE040040947F00EF2478F9E7FE14F765
:202B5D000FBF040040F2902710120199057774DD25774003022AC9757700C3E49529E464A7
:202B7D0080852AF063F08095F05002D3227508008522821201B87E00EE2478F9870275F01A
:202B9D0018EA84E5F09032DF93FAC4540FFB740F5AFCEB04FAEC04FF7536008C378A387517
:202BBD0039018F3A753B01753C018B82C007C006C004C003C002120552D002D003D004D0FD
:202BDD0006D0077536068C378A387539078F3A753B01753C018B82C006120552D0060EBE06
:202BFD00040040947F00EF2478F9E7FE04F70FBF040040F2902710120199057774DD25771D
:202C1D004003022B777F00C3E49529E46480852AF063F08095F05002D32275080085228220
:202C3D00C0071201B8D0077E00EE2478F9870275F018EA84E5F09032DF93FDC4540FFB74FD
:202C5D000F5DFCEB04FDEC04FA7536008C378D387539018A3A753B01753C018B82C007C07C
:202C7D0006C005C004C003C002120552D002D003D004D0057536068C378D387539078A3ABA
:202C9D00753B01753C018B82120552D006D0070EBE040040947E00EE2478F9E7FD14F70EEF
:202CBD00BE040040F2902710C007120199D0070FBF24005003022C247F06C3E49529E46429
:202CDD0080852AF063F08095F05002D322750800852282C0071201B87536067537067538D1
:202CFD0001753907753A07753B01753C01758200120552D0077406C39FFEEF04FD7407C3A9
:202D1D009FFC7536068E378D387539078C3A753B01753C018F82C007C006C005C0041205A4
:202D3D0052D004D005D006D0077536067537068D38753907753A07753B01753C018F82C007
:202D5D0007C006C005C004120552D004D005D0067536068E377538017539078C3A753B01C8
:202D7D00753C01758200C006C005C004120552D004D005D0068E367537067538018C3975F8
:202D9D003A07753B01753C01758200C006C005C004120552D004D005D006D0078E368E37E4
:202DBD008D388C398C3A753B01753C018F82C007C006C005C004120552D004D005D006D064
:202DDD00078E367537068D388C39753A07753B01753C018F82C007C006C004120552D00417
:202DFD00D0068E368E377538018C398C3A753B01753C01758200120552907530120199D0AA
:202E1D0007DF028003022CD7C3227F007E00C3E49529E46480852AF063F08095F05002D3FA
:202E3D0022EE90330F93FDC4540FFC602A740F5DFC04FB752D008B2E752F007530078B3114
:202E5D00753201758200C007C006C0041203ACD004D006D00780028D04752D008C2E752F10
:202E7D00007530078C31753201758200C007C0061203AC121141902710120199D006D0075B
:202E9D000EBE0D0040880FBF05005003022E297F017E00C3E49529E46480852AF063F08058
:202EBD0095F05002D322EE9032DF93FDC4540FFC53050FEC04F544ED04F5458C418D42751B
:202EDD004300754601754701758200C007C006120AAC121141902710120199D006D007EF5A
:202EFD002EFEBE180040AC0FBF080040A47F017E00C3E49529E46480852AF063F08095F0EB
:202F1D005002D322EE9032DF93FDC4540FF508740F5DF509750A01758200C007C006120214
:202F3D0008121141902710120199D006D007EF2EFEBE180040BB0FBF080040B322C201C28C
:202F5D00007F0053877F759850438E04759CD9438E01438E10D2AC758CC0758A00D28CD23F
:202F7D00A9D2AF750800852282C0071201B87508008523821201B8D00730015BC007120123
:202F9D0079AE82D0078E057E0020000CBDF2EABE00E7D2007F0080E1BF4000502AE5237571
:202FBD00F040A42400FB740035F0FCEFC423541FC40354F8FA2BFBE43CFC74075F2BF58258
:202FDD00E43CF583EDF00FBF400040ADC0071202D8D007C20080A2C00712119712129912A6
:202FFD0013CD1213CD1215B11215B1121BED121DDB1221A61221F81228B07508008522827A
:20301D001201B8122E27D0079201022F96C021C0E0C0F0C082C083C007C006C005C004C0A4
:20303D0003C002C001C000C0D075D0007590007F008FF005F07401800225E0D5F0FBF5A00F
:20305D00900003C007120199D007E52275F040A42400FD740035F0FEE524C40354F82DFD28
:20307D00E43EFEEF2DF582E43EF583E0F580900003C007120199D0070FBF080040B3852442
:20309D00F005F07401800225E0D5F0FBF590AE247F008E828F83A375080875090012319100
:2030BD00AE828E24758CC0758A00D0D0D000D001D002D003D004D005D006D007D083D08270
:0730DD00D0F0D0E0D0213259
:203203000020406080A0C0E0E4E8ECF0F4F8FCDCBC9C7C5C3C1C1814100C0804254565858F
:20322300A5C5C9CDD1D5D9B99979593935312D294A6A8AAAAEB2B6967656524E6F8F9373EF
:203243006F8F93734A6A8AAAAEB2B6967656524E25456585A5C5C9CDD1D5D9B99979593937
:2032630035312D290020406080A0C0E0E4E8ECF0F4F8FCDCBC9C7C5C3C1C1814100C0804C7
:203283005151514A4A4A4444181C18181818183C3C666630180C06F63C6660386060663CF6
:2032A30030383C3E367E30303C3C181818183C3C66FFFFFF7E3C18186666666666667E3C5A
:2032C3000020406080A0C0E0E4E8ECF0F4F8FCDCBC9C7C5C3C1C1814100C0804000102031D
:2032E3000405061626364656666564636261605040302010FF89F59393F589FF0E1F3F7EFF
:193303007E3F1F0E183C7EFF18181818000102230506070605230201002D
:06005800E478FFF6D8FD7C
:200036007900E94400601B7A0090331C780075A001E493F2A308B8000205A0D9F4DAF27521
:02005600A0FF09
:1B30E40020F71130F6138883A88220F509F6A8837583002280FEF280F5F022EB
:2030FF00E508450960467A01E50825E0F508E509334012F509E5829508E583950940030A9E
:20311F0080E6C3E50913F509E50813F508C3E5829508F5F0E58395094005F58385F082C342
:0D313F00E50913F509E50813F508DAE122AA
:20005E007800E84400600A790075A000E4F309D8FC7800E84401600C7901900000E4F0A3A0
:04007E00D8FCD9FAD7
:20314C007A10E4FBFCE58225E0F582E58333F583EB33FBEC33FCEB9508F5F0EC9509400697
:09316C00FCABF0438201DADD2224
:0D00290075817B1231FFE582600302002625
:1C31750020F71430F6148883A88220F507E6A88375830022E280F7E49322E02269
:20319100C2D5E58330E70DD2D5E4C39582F582E49583F583E50930E70BE4C39508F508E476
:1631B1009509F5091230FF30D50BE4C39582F582E49583F5832250
:2031C700C2D5E58330E70DD2D5E4C39582F582E49583F583E50930E70DB2D5E4C39508F5A3
:1831E70008E49509F50912314C30D50BE4C39582F582E49583F58322DE
:0431FF0075820022B3
:00000001FF
